:10000000A0C50000CFC50000CDC50000CBC50000D5
:10001000C9C50000C7C50000C5C50000C3C50000B4
:10002000C1C50000BFC50000BDC50000BBC50000C4
:10003000B9C500000C947036B5C50000B3C500000A
:10004000B1C500000C94AE39ADC50000ABC50000D1
:10005000A9C50000A7C50000A5C500000C94515C0F
:10006000A1C500000C9415590C94EC589BC50000D8
:1000700099C5000097C5000095C5000093C5000014
:100080000C9480398FC500008DC500008BC5000021
:100090000C94C2580C94995885C500000C94DE2D20
:1000A00081C500007FC500000C9452397BC500005B
:1000B00079C5000077C5000075C500000C9424398F
:1000C00071C500006FC500006DC500000C9470582C
:1000D0000C94475867C500000C941E580C94F557B3
:1000E00061C5000000407A10F35A00A0724E180952
:1000F0000010A5D4E80000E87648170000E40B548F
:10010000020000CA9A3B000000E1F505000080965D
:100110009800000040420F000000A086010000008F
:10012000102700000000E803000000006400000049
:1001300000000A00000000000100000000002C7612
:10014000D888DC674F0823DFC1DFAE59E1B1B7962D
:10015000E5E3E453C63AE651997696E8E6C284268A
:10016000EB898C9B62ED407C6FFCEFBC9C9F40F266
:10017000BAA56FA5F490055A2AF75C936B6CF967E2
:100180006DC11BFCE0E40D47FEF520E6B500D0EDA7
:10019000902E0300943577050080841E080000200F
:1001A0004E0A000000C80C333333330F986E1283AD
:1001B0001141EF8D2114893BE65516CFFEE6DB1881
:1001C000D1844B381BF77C1D901DA4BBE424203246
:1001D00084725E228100C9F124ECA1E53D27496EBD
:1001E0006E6F477265656E5465636820696E666FF1
:1001F00040696E6E6F677265656E746563682E66C2
:100200007200496E6E6F477265656E546563682053
:10021000696E666F40696E6E6F677265656E746554
:1002200063682E66720020252000204320002025D0
:1002300020002025200020432000205620002043BD
:100240006D20002043200020252000204320002096
:100250002520002043200048756D69646974653A63
:100260000054656D70657261747572653A00487509
:100270006D696469746520736F6C3A0048756D69C7
:1002800064697465206578743A0054656D706572B0
:100290006174757265206578743A0054656E73698F
:1002A0006F6E2062617474657269653A004E69769A
:1002B000656175206561753A0054656D70657261A0
:1002C00074757265206561753A0048756D69646979
:1002D000746520736F6C3A0054656D70657261745B
:1002E00075726520736F6C3A0048756D6964697446
:1002F00065206169723A0054656D7065726174754C
:100300007265206169723A00434F4D504F53544516
:10031000004A415244494E494552450053455252C4
:100320004500496E6E6F477265656E54656368205F
:10033000696E666F40696E6E6F677265656E746533
:1003400063682E66720053455454494E472000009E
:10035000000000003E5B4F5B3E3E6B4F6B3E1C3E21
:100360007C3E1C183C7E3C181C577D571C1C5E7F35
:100370005E1C00183C1800FFE7C3E7FF00182418B4
:1003800000FFE7DBE7FF30483A060E2629792926E9
:10039000407F050507407F05253F5A3CE73C5A7FD3
:1003A0003E1C1C08081C1C3E7F14227F22145F5F29
:1003B000005F5F06097F017F006689956A60606063
:1003C000606094A2FFA29408047E040810207E209E
:1003D0001008082A1C08081C2A08081E10101010F3
:1003E0000C1E0C1E0C30383E3830060E3E0E060039
:1003F0000000000000005F00000007000700147FFD
:10040000147F14242A7F2A12231308646236495663
:1004100020500008070300001C2241000041221C5C
:10042000002A1C7F1C2A08083E0808008070300043
:100430000808080808000060600020100804023E58
:100440005149453E00427F40007249494946214199
:10045000494D331814127F1027454545393C4A4908
:100460004931412111090736494949364649492947
:100470001E00001400000040340000000814224157
:100480001414141414004122140802015909063EE0
:10049000415D594E7C1211127C7F494949363E41DB
:1004A0004141227F4141413E7F494949417F0909FC
:1004B00009013E414151737F0808087F00417F4197
:1004C000002040413F017F081422417F40404040CE
:1004D0007F021C027F7F0408107F3E4141413E7F26
:1004E000090909063E4151215E7F0919294626491D
:1004F00049493203017F01033F4040403F1F2040F4
:10050000201F3F4038403F631408146303047804FD
:10051000036159494D43007F4141410204081020C5
:10052000004141417F04020102044040404040003C
:100530000307080020545478407F28444438384446
:10054000444428384444287F385454541800087EC2
:10055000090218A4A49C787F0804047800447D4014
:10056000002040403D007F1028440000417F4000B3
:100570007C047804787C080404783844444438FCCB
:100580001824241818242418FC7C0804040848544F
:1005900054542404043F44243C4040207C1C20400C
:1005A000201C3C4030403C44281028444C90909003
:1005B0007C4464544C44000836410000007700003D
:1005C000004136080002010204023C2623263C1E9C
:1005D000A1A161123A4040207A385454555921550E
:1005E000557941225454784221555478402054552D
:1005F00079400C1E5272123955555559395454547C
:100600005939555454580000457C410002457D42FB
:100610000001457C407D1211127DF0282528F07CD8
:10062000545545002054547C547C0A097F49324972
:100630004949323A4444443A324A4848303A4141BE
:10064000217A3A42402078009DA0A07D3D4242425E
:100650003D3D4040403D3C24FF2424487E494366C4
:100660002B2FFC2F2BFF0929F620C0887E090320A1
:10067000545479410000447D413048484A32384062
:1006800040227A007A0A0A727D0D19317D262929C5
:100690002F28262929292630484D402038080808C7
:1006A0000808080808382F10C8ACBA2F102834FAE8
:1006B00000007B000008142A142222142A14085572
:1006C00000550055AA55AA55AAFF55FF55FF000031
:1006D00000FF00101010FF00141414FF001010FF92
:1006E00000FF1010F010F0141414FC001414F700A4
:1006F000FF0000FF00FF1414F404FC141417101F73
:1007000010101F101F1414141F00101010F0000000
:1007100000001F101010101F10101010F01000001B
:1007200000FF101010101010101010FF100000002B
:10073000FF140000FF00FF00001F10170000FC0462
:10074000F414141710171414F404F40000FF00F745
:1007500014141414141414F700F7141414171410A8
:10076000101F101F141414F4141010F010F00000D7
:100770001F101F0000001F14000000FC140000F0F8
:1007800010F01010FF10FF141414FF141010101F9D
:1007900000000000F010FFFFFFFFFFF0F0F0F0F0AE
:1007A000FFFFFF0000000000FFFF0F0F0F0F0F38CB
:1007B00044443844FC4A4A4A347E02020606027E19
:1007C000027E0263554941633844443C04407E2024
:1007D0001E2006027E020299A5E7A5991C2A492A35
:1007E0001C4C7201724C304A4D4D303048784830C4
:1007F000BC625A463D3E494949007E0101017E2ABC
:100800002A2A2A2A44445F444440514A44404044EE
:100810004A51400000FF0103E080FF000008086B20
:100820006B083612362436060F090F06000018181A
:100830000000001010003040FF0101001F01011EE8
:1008400000191D1712003C3C3C3C00000000000059
:100850005EBCE2613FDD83C29C7E20A3FD1F4100A0
:100860009D23BE46DB65F88C11AF32CA57E9740090
:10087000002100240027002A002D00300033000151
:10088000010000040107010A0100000A0B02090C23
:100890000D0E080703040100000000000000000026
:1008A0000000000000000000000000000000000048
:1008B0000000000000121110000000000000000005
:1008C0000000000000000000000000000000002008
:1008D0004C7578200020436D200020432000202507
:1008E0002000204320002070706D20002025200073
:1008F000204320004C756D696E6F736974653A0012
:100900004E6976656175206561753A0054656D7054
:1009100065726174757265206561753A0048756D20
:10092000696469746520736F6C3A0054656D706515
:1009300072617475726520736F6C3A0043303200D7
:1009400048756D6964697465206169723A0054651F
:100950006D7065726174757265206169723A0053D9
:1009600045525245002041200020412000205620C1
:10097000002025200020432000436F7572616E74B3
:10098000207574696C6973653A00436F7572616EA6
:10099000742062617474657269653A0054656E739F
:1009A000696F6E2062617474657269653A0048759A
:1009B0006D69646974653A0054656D70657261743F
:1009C0007572653A00434F4D504F535445002043D4
:1009D0006D2000202520002043200020252000201D
:1009E0004320004E6976656175206561753A004364
:1009F00061742070726F6F663A0048756D69646942
:100A0000746520736F6C3A0054656D706572617423
:100A100075726520736F6C3A0048756D696469740E
:100A2000653A0054656D70657261747572653A005F
:100A30004A415244494E49455245004164726573EA
:100A40007365204D4143203A0050617373657265B0
:100A50006C6C65203A00416472657373652049705F
:100A60003A00496E666F726D6174696F6E20436FF4
:100A70006E6E6578696F6E20574946490000002008
:100A8000002300260029002C002F00320000010066
:100A900000030106010901010210202008081020AE
:100AA00040102040800201020108040201010204FA
:100AB00008102040808040201008040201800402B9
:100AC0000180402010080402010804020101020410
:100AD00008102040800102040810204080000022FD
:100AE00000250028002B002E0031003400020100F8
:100AF00000050108010B01050505050705080808A3
:100B000008020202020A0A0808040404040101019E
:100B100001010101010303030303030303040707A6
:100B2000070C0C0C0C0C0C0C0C0202020206060644
:100B300006060606060B0B0B0B0B0B0B0B00A46932
:100B4000906911241FBECFEFD1E2DEBFCDBF00E020
:100B50000CBF17E0A0E0B2E0ECEDFDE001E00BBF60
:100B600002C007900D92A238B107D9F720E1A2E8A0
:100B7000B7E001C01D92AB33B207E1F715E0C0EA60
:100B8000D5E000E006C021970109802FFE010E94F8
:100B90004D84CF39D10780E00807A9F70E94D06CB7
:100BA0000C94DD862DCA85ED8093BC008091BC003D
:100BB00084FDFCCF1092AC0808952091F007260F19
:100BC0003327331F21323105ECF42091AC08FC01AE
:100BD00090E080E0243069F082E00895A091F00771
:100BE0002191AC014053584FA40FB52FB11D2C9348
:100BF0000196861798F38091F007680F6093F007CD
:100C000080E0089581E00895089508950895E091A1
:100C1000B0088091AF08E81730F4F0E0E055F84FE5
:100C2000808190E008958FEF9FEF08959091B00834
:100C30008091AF082FEF3FEF981748F4E92FF0E0CD
:100C4000E055F84F208130E09F5F9093B008C901D4
:100C500008958091AF089091B008891B990B089571
:100C6000CF92DF92EF92FF920F931F93CF93DF9378
:100C70007C01CB018A0120913808222389F0EB0105
:100C80006B01C40ED51ECC15DD0561F06991D7014D
:100C9000ED91FC910190F081E02DC7011995F3CF02
:100CA000642F8BDFC801DF91CF911F910F91FF90CF
:100CB000EF90DF90CF900895CF93DF931F92CDB741
:100CC000DEB76983209138082223F9F02091AD081E
:100CD000203258F021E030E0FC013383228390E0A1
:100CE00080E00F90DF91CF9108958091AE08E82FBA
:100CF000F0E0E057F84F998190838F5F8093AE08C2
:100D00008093AD0881E090E0ECCF61E0CE010196E8
:100D100054DFF8CFFC01858D8F3351F018F48F31FB
:100D200049F008958F3541F08F37D9F78CE0089559
:100D30008AE0089589E008958BE00895DC012C9104
:100D40001196ED91FC91F8948181822B818392819F
:100D5000322F30959323928387E090E00197F1F74B
:100D600081818323818383E290E00197F1F7908171
:100D70007894EFECF0E03197F1F7922381E009F4F9
:100D800080E00895FC0190810180F281E02D292FFF
:100D9000209560FF14C0F894828182238283818130
:100DA000892B8183A3E2B0E01197F1F78281982B20
:100DB0009283789487ED90E00197F1F70895F89485
:100DC0008281822382838181892B8183AFEFB0E08E
:100DD0001197F1F78281982B928378948FE090E0BD
:100DE000EBCFDF92EF92FF920F931F93CF93DF939E
:100DF000EC01D62EE42E08E010E0FF24F39461E02D
:100E00008D2D8F2109F460E0CE01BCDFFF0C015075
:100E10001109A9F7E11010C0F894E981FA819181D4
:100E20008881809589238183E981FA8192818881F3
:100E30008095892382837894DF91CF911F910F91C0
:100E4000FF90EF90DF900895EF92FF920F931F9322
:100E5000CF93DF93EC018881E981FA81F894918145
:100E6000282F20959223918378943DE743E050E02A
:100E7000315039F1DA011197F1F790819823C1F3DC
:100E8000F8949281922392839181982B9183789404
:100E9000ABE7B7E01197F1F7F89491819223918332
:100EA000A3E1B1E01197F1F790817894E3E6F6E0E1
:100EB0003197F1F7892329F46C3C79F050F46535CA
:100EC00089F080E0DF91CF911F910F91FF90EF901B
:100ED00008956C3E11F0603FA1F740E0CE0181DF44
:100EE00081E0F0CF40E065E5CE017BDF8E010F5E53
:100EF0001F4F7E0189E1E80EF11CF80161918F011D
:100F000040E0CE016EDFE016F106B9F7E9CF0895B3
:100F10008CBD9DBD08950895FC016370668B84812E
:100F2000958126813781613039F0633029F09187CE
:100F30008087338722870895318720879387828728
:100F400008952F923F924F925F926F927F928F926D
:100F50009F92AF92BF92CF92DF92EF92FF920F9348
:100F60001F93CF93DF93CDB7DEB76A970FB6F89490
:100F7000DEBF0FBECDBF9A8F898F7A8369834A0106
:100F8000D22E18870F833701BC2CDC0159962D9186
:100F90003C915A972115310509F015C118968D918C
:100FA0009C911997681779070CF0D7C11A968D9103
:100FB0009C91481759070CF0D0C14C2C512CB6E02D
:100FC000CB9E600D711D11247C876B87161617064A
:100FD0000CF0C3C1EA2DF0E0FA87E98793E0EE0F49
:100FE000FF1F9A95E1F7F88BEF87CF01840F951FCC
:100FF000181619060CF0B1C1A98DBA8D58968C91AE
:10100000811104C0BFEABD1508F4D394A98DBA8D2F
:10101000ED91FC9111970284F385E02DCD01199596
:10102000B5E0DB9EC0011124E981FA81FC83EB83EA
:10103000312C212C9C01215B3C4F388F2F8B4A2D6A
:1010400050E05E8B4D8BEF89F88DE20DF31D4491DE
:101050009E828D82D12CC12C69817A81620D731D93
:101060007A8B698B842F90E09C8B8B8BE98DFA8D2A
:10107000A081B18140FF82C0F1E0BF126FC0AF120A
:101080006DC01C96ED91FC912F813885A4014C0D0B
:101090005D1D69897A89898D9A8D1995EB89FC89FD
:1010A000F595E7954E2F5FEFC51AD50A6D817E81C4
:1010B0008D899E89680F791F7E836D8398E0C9169C
:1010C000D10481F6AFEF2A1A3A0AEB81FC81E40DD4
:1010D000F51DFC83EB83F5E02F16310409F0B3CF47
:1010E0002F81388526153705B9F0A98DBA8DED9178
:1010F000FC91B1E0BB1257C0AB1255C069817A8137
:101100006B5F7F4F0088F189E02D830128E030E09C
:10111000A401898D9A8D1995A98DBA8DED91FC91B7
:1011200011970688F789E02DCD016A960FB6F894DD
:10113000DEBF0FBECDBFDF91CF911F910F91FF900A
:10114000EF90DF90CF90BF90AF909F908F907F9067
:101150006F905F904F903F902F9019941E96ED9155
:10116000FC91EF80F88409851A8592014D815E819A
:101170006B817C81898D9A8D199590CF2F813885CF
:101180002615370509F48ACF31E0B31207C0A31240
:1011900005C01C96ED91FC91930178CF1E96ED91C0
:1011A000FC917301E0CF6B857C8564197509068419
:1011B000F785E02D73010F8518899201A401898DAF
:1011C0009A8D1995A9CFF90134969491329745914A
:1011D0005491D91AB7E0DB9E400D511D1124F9013D
:1011E000259134913C8B2B8BFA0125903490FA0198
:1011F0003296749031963491398B32966490319650
:10120000449041E04C1518F04A1508F07FC0662D57
:10121000062C000C770B7C836B83842D042C000C34
:10122000990B9E838D83A98DBA8DED91FC911197B9
:101230000284F385E02DCD011995512CD12CC12CC0
:10124000EA2DF0E0FA87E9872B2D30E03C872B87E9
:10125000A401440D511D47FC5A95588F4F8B69814D
:101260007A81660D711D67FC7A957E876D87798915
:10127000C71608F051CF2C2D30E04D815E81420F12
:10128000531FA985BA854A9FC0014B9F900D5A9F55
:10129000900D1124FC01E80DF91DF88BEF87852DC9
:1012A000612C4F89588D420F531F5E8B4D8B6714F5
:1012B00008F050C044244394480E877041F4C101A3
:1012C0000196EB89FC89E20DF31DD4901C01D7FE39
:1012D00019C0A98DBA8DED91FC91662D70E0B1E039
:1012E000BB1219C0AB1217C02D853E85620F731F4C
:1012F0000484F585E02D2F8138854D895E89898D9F
:101300009A8D1995DD0C6394842DD1CF1E821D8298
:101310001C821B8288CF4B815C81640F751FAB855B
:10132000BC856A9FC0016B9F900D7A9F900D112420
:1013300069817A81680F791F0684F785E02DEF8037
:10134000F88409851A859D014F855889898D9A8D64
:101350001995D8CF570CC3948ACF6A960FB6F894D4
:10136000DEBF0FBECDBFDF91CF911F910F91FF90D8
:10137000EF90DF90CF90BF90AF909F908F907F9035
:101380006F905F904F903F902F9008958F929F9213
:10139000AF92CF92EF92FF920F931F93CF93DF9371
:1013A000EC01262F898D9A8D009709F050C06A3084
:1013B000D1F41D861C868D8948E0849F90011124FC
:1013C0008E859F85820F931F9F878E8781E090E097
:1013D000DF91CF911F910F91FF90EF90CF90AF9041
:1013E0009F908F9008956D3089F3CC88AD888F8958
:1013F0008823C1F08C859D8536E0C39E800D911DAC
:101400001124488559854817590764F44E855F852E
:101410001D861C8638E0A39EC0011124840F951FF1
:101420009F878E87EA88FB88088919894E855F85A2
:101430006C857D85CE0185DD2C898C859D8546E07A
:10144000249F800D911D11249D878C87BFCF6A300A
:1014500069F41D861C86FC013696E4912D898E85E3
:101460009F85E29F800D911D1124AECF6D3009F450
:10147000ADCFFC0134963491631708F4A7CF3196B1
:10148000E491E61708F4A2CFFC013296859094907F
:10149000462F431B342F47E0349F800C911C1124AE
:1014A000F401329634913196E4913323A1F1EE2385
:1014B00091F1CC88F4013596E491AD884F894423AD
:1014C00001F10E2E000CFF0BE30FF11DCE9EA001CB
:1014D000CF9E500D11246C857D85460F571F688562
:1014E0007985641775076CF44E855F851D861C86AB
:1014F000FC013696E491AE9E400D511D11245F878C
:101500004E87EA88FB88088919894E855F856C8536
:101510007D85CE0116DDF4013496E4912C898C850D
:101520009D85E29F800D911D11248ECF6F927F9239
:101530008F929F92AF92BF92CF92DF92EF92FF92E3
:101540000F931F93CF93DF93EC016B015A01390185
:101550004801E881F9810284F385E02D1995E8813D
:10156000F9810288F389E02D87019301A501B60175
:10157000CE011995A501480D591D41505109E88129
:10158000F9810288F389E02D9301B601CE01199506
:10159000E881F9810088F189E02D9401A501B60167
:1015A000CE011995C60CD71CB60161507109E881AE
:1015B000F9810088F189E02D9401A501CE011995EA
:1015C000E881F9810688F789E02DCE01DF91CF917E
:1015D0001F910F91FF90EF90DF90CF90BF90AF9051
:1015E0009F908F907F906F9019946F927F928F92BF
:1015F0009F92AF92BF92CF92DF92EF92FF920F93A2
:101600001F93CF93DF935C01EB016A01490138011D
:101610008701DC01ED91FC916217730719F56416DF
:1016200075062CF0962D872D3A01C92ED82E9601DD
:10163000261937092F5F3F4F048CF58DE02DA3014C
:10164000BE01C5011995DF91CF911F910F91FF90B8
:10165000EF90DF90CF90BF90AF909F908F907F9052
:101660006F9008954615570591F42617370724F013
:10167000892D4B01C22FD82F9E01281939092F5FC0
:101680003F4F068CF78DE02DA601B401DACF02841E
:10169000F385E02D1995D501ED91FC910488F5892C
:1016A000E02D83019401A601BE01C5011995D50164
:1016B000ED91FC910688F789E02DC501DF91CF916E
:1016C0001F910F91FF90EF90DF90CF90BF90AF9060
:1016D0009F908F907F906F901994EF92FF920F934D
:1016E0001F93DC011A960D911C911B9718962D9152
:1016F0003C911997ED91FC9100A0F1A1E02D7B01A7
:1017000050E040E070E060E019951F910F91FF906C
:10171000EF9008954F925F926F927F928F929F9277
:10172000AF92BF92CF92DF92EF92FF920F931F93EF
:10173000CF93DF936C012B015A0139014801DC0181
:10174000ED91FC910284F385E02D1995E201640C82
:10175000751CD601ED91FC91C615D7055CF4008887
:10176000F189E02D87019401A501BE01C6011995FB
:101770002196EFCF0688F789E02DC601DF91CF9142
:101780001F910F91FF90EF90DF90CF90BF90AF909F
:101790009F908F907F906F905F904F9019948F9251
:1017A0009F92AF92BF92CF92DF92EF92FF920F93F0
:1017B0001F93CF93DF93EC015B014A016901E8813C
:1017C000F9810284F385E02D199595012C0D3D1DBD
:1017D00021503109E881F9810488F589E02D7801EB
:1017E0008401A401B501CE011995E881F98106882B
:1017F000F789E02DCE01DF91CF911F910F91FF90DE
:10180000EF90DF90CF90BF90AF909F908F90199402
:101810008F929F92AF92BF92CF92DF92EF92FF9200
:101820000F931F93CF93DF93EC015B014A01690192
:101830007801E881F9810284F385E02D1995C80CBF
:10184000D91C860101501109E881F9810488F589C4
:10185000E02D9501A401B501CE011995E881F9812A
:101860000688F789E02DCE01DF91CF911F910F916E
:10187000FF90EF90DF90CF90BF90AF909F908F90B0
:101880001994EF92FF920F931F93DC01ED91FC915D
:1018900000A0F1A1E02D19951F910F91FF90EF90FD
:1018A00008950F931F93DC01ED91FC91068CF78D49
:1018B000E02D19951F910F9108950F931F93DC014F
:1018C000ED91FC91048CF58DE02D19951F910F91F0
:1018D0000895DC01ED91FC910084F185E02D1994CF
:1018E0002F923F924F925F926F927F928F929F9230
:1018F000AF92BF92CF92DF92EF92FF920F931F931E
:10190000CF93DF9300D000D0CDB7DEB73C016A01A2
:101910003E832D83FC82EB825801A41AB50AB7FEE0
:1019200003C0B194A194B1088D809E80861A970A55
:1019300097FE03C09194819491088A149B045CF0F3
:10194000902F812F0D811E819D838E839C2D8D2D47
:101950006B01692F782F0C151D055CF09D818E8120
:101960007E836D83692F782F902F812F8601C92E5A
:10197000D82E1601201A310A2B012D813E81421AE0
:10198000530A57FE03C0519441945108710137FE28
:1019900003C03FEFE31AF30AF594E7948D819E812B
:1019A000861797075CF5A1E0B0E0BA83A983C0165B
:1019B000D1064CF1D301ED91FC910484F585E02D25
:1019C0002B813C81A8016D817E818A149B041CF0CF
:1019D0004D815E81B801C3011995E418F508F7FE41
:1019E0000AC02D813E8189819A81280F391F3E834B
:1019F0002D83E20CF31C0F5F1F4FD9CF2FEF3FEF6A
:101A00003A832983D4CF26960FB6F894DEBF0FBE53
:101A1000CDBFDF91CF911F910F91FF90EF90DF909D
:101A2000CF90BF90AF909F908F907F906F905F907E
:101A30004F903F902F9008958F929F92AF92BF92B8
:101A4000CF92DF92EF92FF92CF93DF93FC01A48DB0
:101A5000B58D8C9190A589238C93A68DB78D8C9193
:101A600091A589238C93A2E0B1E08C9187788C9327
:101A70008C9190E2699FB0011124682B6C938EB118
:101A8000877C8EB98EB188628EB9A59884B384BBE9
:101A9000C0A1D1A1888192A589238883C0A1D1A1A9
:101AA000888196A1892B8883C68DD78D888195A141
:101AB000892B888383E290E0EC012197F1F76C9108
:101AC00067786C936C91C52EDD24EE24FF244901C8
:101AD0005A01CBE1B694A79497948794CA95D1F70D
:101AE000782D7871872E862A6C2D6295660F607628
:101AF000862A8C926EB1677C6EB96EB149015A012B
:101B0000DAE1B694A79497948794DA95D1F7782D73
:101B10007870872E862A6C2D660F660F6073862A72
:101B20008EB8A59864B3CC0C7C2D7072C72EC62AD3
:101B3000C4BAC0A1D1A1688172A567236883C0A17E
:101B4000D1A1688176A1672B6883EC012197F1F719
:101B50006C9167786C936C916A01EE24FF244901C3
:101B60005A01C3E1B694A79497948794CA95D1F784
:101B7000782D7871872E862A6C2D6295660F607697
:101B8000862A8C926EB1677C6EB96EB149015A019A
:101B9000D2E1B694A79497948794DA95D1F7782DEB
:101BA0007870872E862A6C2D660F660F6073862AE2
:101BB0008EB8A59864B3CC0C7C2D7072C72EC62A43
:101BC000C4BAC0A1D1A1688172A567236883C0A1EE
:101BD000D1A1688176A1672B6883EC012197F1F789
:101BE0006C9167786C936C91C32ED42EE52EFF24F4
:101BF00049015A01CBE0B694A79497948794CA956B
:101C0000D1F7782D7871872E862A6C2D6295660F14
:101C10006076862A8C926EB1677C6EB96EB149018E
:101C20005A01DAE0B694A79497948794DA95D1F79D
:101C3000782D7870872E862A6C2D660F660F60735C
:101C4000862A8EB8A59864B3CC0C7C2D7072C72EF2
:101C5000C62AC4BAC0A1D1A1688172A567236883CE
:101C6000C0A1D1A1688176A1672B68830197F1F7A4
:101C70008C9187788C93CC91CA01B901D3E0969569
:101C8000879577956795DA95D1F76871822F829558
:101C9000880F8076682B6C2B6C938EB1877C8EB905
:101CA0009EB1822F880F880F807369017A0132E01C
:101CB000F694E794D794C7943A95D1F76C2D687051
:101CC000862B892B8EB9A59884B3220F2072282BDE
:101CD00024BBA0A1B1A18C9192A589238C93A0A132
:101CE000B1A18C9196A1892B8C93A48DB58D8C91EB
:101CF00094A1892B8C93DF91CF91FF90EF90DF908F
:101D0000CF90BF90AF909F908F900895AF92BF9269
:101D1000CF92DF92EF92FF920F931F93CF93DF93B7
:101D2000FC0169017A01A48DB58D8C9190A5892360
:101D30008C93A68DB78D8C9191A589238C93838DDF
:101D4000823009F02CC180910201877880930201D2
:101D500080910201809302018EB1877C8EB98EB191
:101D600088638EB9A59884B384BBA0A1B1A18C91DE
:101D700092A589238C93A0A1B1A18C9196A1892BC6
:101D80008C93A68DB78D8C9195A1892B8C93809186
:101D9000020187788093020120910201872F90E051
:101DA000AC0133E0559547953A95E1F7142F18713A
:101DB000AC01A5E0440F551FAA95E1F74076142B1E
:101DC000212B209302012EB1277C2EB92EB1AC011C
:101DD000440F551F440F551FD42FD073AC01559598
:101DE0004795559547954870D42B2D2B2EB9A5981E
:101DF00024B3880F991FC82FC072822F8C2B84BBED
:101E0000A0A1B1A18C9192A589238C93A0A1B1A18D
:101E10008C9196A1892B8C93809102018778809375
:101E2000020120910201CB01AB0133E055954795AA
:101E30003A95E1F7B42FB871AB01A5E0440F551FF7
:101E4000AA95E1F74076BB2EB42A2B2920930201F4
:101E50002EB1277C2EB92EB1AB01440F551F440F74
:101E6000551FA42FA073AB015595479555954795E0
:101E70004870AA2EA42A2A292EB9A59824B3880F1F
:101E8000991F8072922F982B94BB20A131A1D90168
:101E90009C9142A594239C9340A151A1DA019C916D
:101EA00026A1922B9C93A70196012150310941094B
:101EB000510969017A0146E0F694E794D794C794F2
:101EC0004A95D1F776017613B8C0B1E0EB1AF10864
:101ED00008F496C080E1A0A1B1A19C9162A59623CF
:101EE0009C93A0A1B1A19C9166A1962B9C93A0A1CB
:101EF000B1A19C9162A596239C93A0A1B1A19C91B4
:101F000066A1962B9C93A0A1B1A19C9162A596235A
:101F10009C93A0A1B1A19C9166A1962B9C93A0A19A
:101F2000B1A19C9162A596239C93A0A1B1A19C9183
:101F300066A1962B9C93A0A1B1A19C9162A596232A
:101F40009C93A0A1B1A19C9166A1962B9C93A0A16A
:101F5000B1A19C9162A596239C93A0A1B1A19C9153
:101F600066A1962B9C93A0A1B1A19C9162A59623FA
:101F70009C93A0A1B1A19C9166A1962B9C93A0A13A
:101F8000B1A19C9162A596239C93A0A1B1A19C9123
:101F900066A1962B9C93815009F09DCF96CF81111D
:101FA0002CC0809102018778809302018091020108
:101FB000809302018EB1877C8EB98EB18EB9A598BF
:101FC00084B384BBA0A1B1A18C9192A589238C93E9
:101FD000A0A1B1A18C9196A1892B8C938091020133
:101FE00087788093020180910201806480930201CE
:101FF0008EB1877C8EB9739AB5CE833079F7A3CE34
:102000002F73215008F47CC1A0A1B1A18C9192A59D
:1020100089238C93A0A1B1A18C9196A1892B8C933B
:10202000A0A1B1A18C9192A589238C93A0A1B1A16B
:102030008C9196A1892B8C93E4CF91E0E91AF10859
:1020400008F415C190E16091020167786093020184
:1020500060910201612B609302016EB1677C6EB9E1
:102060006EB16D2B6EB9A59864B36C2B64BB60A187
:1020700071A1DB010C91D2A40D210C9360A171A17F
:10208000DB010C91D6A00D290C93609102016778B9
:1020900060930201609102016B29609302016EB1AD
:1020A000677C6EB96EB16A296EB9A59864B3682B66
:1020B00064BB60A171A1DB010C91D2A40D210C9332
:1020C00060A171A1DB010C91D6A00D290C93609148
:1020D000020167786093020160910201612B6093B5
:1020E00002016EB1677C6EB96EB16D2B6EB9A598A9
:1020F00064B36C2B64BB60A171A1DB010C91D2A411
:102100000D210C9360A171A1DB010C91D6A00D29CA
:102110000C93609102016778609302016091020163
:102120006B29609302016EB1677C6EB96EB16A294A
:102130006EB9A59864B3682B64BB60A171A1DB0183
:102140000C91D2A40D210C9360A171A1DB010C9123
:10215000D6A00D290C93609102016778609302016B
:1021600060910201612B609302016EB1677C6EB9D0
:102170006EB16D2B6EB9A59864B36C2B64BB60A176
:1021800071A1DB010C91D2A40D210C9360A171A16E
:10219000DB010C91D6A00D290C93609102016778A8
:1021A00060930201609102016B29609302016EB19C
:1021B000677C6EB96EB16A296EB9A59864B3682B55
:1021C00064BB60A171A1DB010C91D2A40D210C9321
:1021D00060A171A1DB010C91D6A00D290C93609137
:1021E000020167786093020160910201612B6093A4
:1021F00002016EB1677C6EB96EB16D2B6EB9A59898
:1022000064B36C2B64BB60A171A1DB010C91D2A4FF
:102210000D210C9360A171A1DB010C91D6A00D29B9
:102220000C93609102016778609302016091020152
:102230006B29609302016EB1677C6EB96EB16A2939
:102240006EB9A59864B3682B64BB60A171A1DB0172
:102250000C91D2A40D210C9360A171A1DB010C9112
:10226000D6A00D290C93915009F0EDCEE6CE2F7338
:10227000215008F445C09091020197789093020193
:1022800090910201912B909302019EB1977C9EB98F
:102290009EB19D2B9EB9A59894B39C2B94BB40A155
:1022A00051A1DA019C9132A593239C9340A151A1A5
:1022B000DA019C9136A1932B9C939091020197781F
:1022C00090930201909102019B29909302019EB18B
:1022D000977C9EB99EB19A299EB9A59894B3982BE4
:1022E00094BB40A151A1DA019C9132A593239C9308
:1022F00040A151A1DA019C9136A1932B9C93B8CFB8
:10230000A48DB58D8C9194A1892B8C93DF91CF9165
:102310001F910F91FF90EF90DF90CF90BF90AF9003
:102320000895CF93DF93FC01A48DB58D8C9190A57A
:1023300089238C93808591850197A68DB78D2C91EB
:1023400031A523232C93A2E0B1E02C9127782C9384
:102350002C912C932EB1277C2EB9749AA59824B376
:1023600024BBC0A1D1A1288132A523232883C0A1E9
:10237000D1A1288136A1232B2883C68DD78D288112
:1023800035A1232B28832C9127782C93CC91292FAE
:102390003327A90163E0559547956A95E1F74871A0
:1023A000B901D5E0660F771FDA95E1F76076462B25
:1023B0004C2B4C934EB1477C4EB9CEB1A901440F82
:1023C000551F440F551F4073B90175956795759555
:1023D00067956870462B4C2B4EB9A59844B3220FD5
:1023E000331F2072242B24BBC0A1D1A1288132A588
:1023F00023232883C0A1D1A1288136A1232B2883A0
:10240000C68DD78D288131A5232328832C91277849
:102410002C932C9120622C932EB1277C2EB9749A88
:10242000A59824B324BBC0A1D1A1288132A5232320
:102430002883C0A1D1A1288136A1232B2883C68D52
:10244000D78D288135A1232B28832C9127782C9395
:102450006C9199279C0173E0359527957A95E1F762
:102460002871AC01C5E0440F551FCA95E1F74076CD
:10247000242B262B2C932EB1277C2EB96EB19C01D8
:10248000220F331F220F331F2073AC015595479540
:10249000559547954870242B262B2EB9A59824B323
:1024A000880F991F8072822B84BBC0A1D1A1888123
:1024B00092A589238883C0A1D1A1888196A1892B67
:1024C0008883828593850197C68DD78D288131A514
:1024D000232328832C9127782C932C912C932EB195
:1024E000277C2EB9759AA59824B324BBC0A1D1A18D
:1024F000288132A523232883C0A1D1A1288136A118
:10250000232B2883C68DD78D288135A1232B2883A3
:102510002C9127782C93CC91292F3327A90163E0A4
:10252000559547956A95E1F74871B901D5E0660F71
:10253000771FDA95E1F76076462B4C2B4C934EB122
:10254000477C4EB9CEB1A901440F551F440F551F0A
:102550004073B90175956795759567956870462BB9
:102560004C2B4EB9A59844B3220F331F2072242B55
:1025700024BBC0A1D1A1288132A523232883C0A1D7
:10258000D1A1288136A1232B2883C68DD78D288100
:1025900031A5232328832C9127782C932C9120621A
:1025A0002C932EB1277C2EB9759AA59824B324BB01
:1025B000C0A1D1A1288132A523232883C0A1D1A104
:1025C000288136A1232B2883C68DD78D288135A15C
:1025D000232B28832C9127782C936C9199279C018D
:1025E00073E0359527957A95E1F72871AC01C5E040
:1025F000440F551FCA95E1F74076242B262B2C93C8
:102600002EB1277C2EB96EB19C01220F331F220FF1
:10261000331F2073AC0155954795559547954870E4
:10262000242B262B2EB9A59824B3880F991F8072CE
:10263000822B84BBA0A1B1A18C9192A589238C93FC
:10264000A0A1B1A18C9196A1892B8C93A48DB58D5D
:102650008C9194A1892B8C93DF91CF9108958F92C7
:102660009F92BF92CF92DF92EF92FF920F931F93B0
:10267000CF93DF93EC017A01A901EC8DFD8D808170
:1026800098A5892380838B8D811125C58E89823001
:1026900009F4FEC4833009F410C54701DB01813021
:1026A00061F4AFEEB0E0CD01801B910BAE19BF0914
:1026B0004B018901AD017B01BC012E8D3F8DF901DC
:1026C000808199A5892380838091020187788093F6
:1026D000020180910201809302018EB1877C8EB944
:1026E0008EB18EB9A59884B384BB28A139A1F90114
:1026F00080819AA58923808328A139A1F90180814D
:102700009EA1892B808380910201877880930201AA
:10271000809102018860809302018EB1877C8EB91E
:102720008EB18EB9A598A59A28A139A1F901808109
:102730009AA58923808328A139A1F90180819EA1CE
:10274000892B80832E8D3F8DF90180819DA1892B5E
:10275000808380910201877880930201B09002010A
:10276000872F99279C01F3E035952795FA95E1F796
:1027700028716C0135E0CC0CDD1C3A95E1F73C2D5D
:102780003076232B2B29209302012EB1277C2EB9E2
:10279000BEB09C01220F331F220F331F20736C0128
:1027A000D594C794D594C7943C2D3870232B2B29EE
:1027B0002EB9A59824B3880F991F8072822B84BBF1
:1027C00028A139A1F90180819AA58923808328A1B4
:1027D00039A1F90180819EA1892B8083809102011A
:1027E000877880930201D0900201CB01E3E09595B8
:1027F0008795EA95E1F788719B01F5E0220F331F79
:10280000FA95E1F72076822B8D29809302018EB113
:10281000877C8EB9DEB0CB01880F991F880F991F76
:1028200080739B0135952795359527952870822BC8
:102830008D298EB9A59824B3660F771F6072622B1D
:1028400064BB28A139A1F90180819AA589238083DD
:1028500028A139A1F90180819EA1892B80832E8D29
:102860003F8DF901808199A58923808380910201A0
:1028700087788093020180910201809302018EB1DA
:10288000877C8EB98EB18EB9A59884B384BB28A1FC
:1028900039A1F90180819AA58923808328A139A1D2
:1028A000F90180819EA1892B808380910201877824
:1028B00080930201809102018862809302018EB1AF
:1028C000877C8EB98EB18EB9A598A59A28A139A119
:1028D000F90180819AA58923808328A139A1F90172
:1028E00080819EA1892B80832E8D3F8DF90180816F
:1028F0009DA1892B808380910201877880930201BA
:10290000D0900201852F99279C0163E0359527958A
:102910006A95E1F72871BC01E5E0660F771FEA953B
:10292000E1F76076262B2D29209302012EB1277C1A
:102930002EB9DEB09C01220F331F220F331F2073EC
:10294000BC0175956795759567956870262B2D293F
:102950002EB9A59824B3880F991F8072822B84BB4F
:1029600028A139A1F90180819AA58923808328A112
:1029700039A1F90180819EA1892B80838091020178
:1029800087788093020160910201CA0173E09595F6
:1029900087957A95E1F788719A01E5E0220F331F58
:1029A000EA95E1F72076822B862B809302018EB187
:1029B000877C8EB96EB1CA01880F991F880F991F45
:1029C00080739A0135952795359527952870822B28
:1029D000862B8EB9A59884B39A01220F331F2072DB
:1029E000282B24BB28A139A1F90180819AA589232C
:1029F000808328A139A1F90180819EA1892B808340
:102A00002E8D3F8DF901808199A589238083809146
:102A10000201877880930201809102018093020174
:102A20008EB1877C8EB98EB18EB9A59884B384BBE4
:102A300028A139A1F90180819AA58923808328A141
:102A400039A1F90180819EA1892B808380910201A7
:102A5000877880930201809102018864809302014B
:102A60008EB1877C8EB98EB18EB9A598A59A28A112
:102A700039A1F90180819AA58923808328A139A1F0
:102A8000F90180819EA1892B80832E8D3F8DF901D4
:102A900080819DA1892B808380910201877880931A
:102AA0000201609102018F2D99279C0173E03595F9
:102AB00027957A95E1F72871AC01E5E0440F551FA1
:102AC000EA95E1F74076242B262B209302012EB1C4
:102AD000277C2EB96EB19C01220F331F220F331FAA
:102AE0002073AC0155954795559547954870242B13
:102AF000262B2EB9A59824B3880F991F8072822B9C
:102B000084BB28A139A1F90180819AA589238083FA
:102B100028A139A1F90180819EA1892B8083809110
:102B2000020187788093020140910201C70153E0BE
:102B3000959587955A95E1F78871970165E0220F81
:102B4000331F6A95E1F72076822B842B8093020154
:102B50008EB1877C8EB94EB1C701880F991F880F3F
:102B6000991F80739701359527953595279528707E
:102B7000822B842B8EB9A59884B39701220F331F23
:102B80002072282B24BB28A139A1F90180819AA5A4
:102B90008923808328A139A1F90180819EA1892BF5
:102BA00080832E8D3F8DF901808199A589238083B3
:102BB00080910201877880930201809102018093C5
:102BC00002018EB1877C8EB98EB18EB9A59884B37F
:102BD00084BB28A139A1F90180819AA5892380832A
:102BE00028A139A1F90180819EA1892B8083809140
:102BF00002018778809302018091020188668093A8
:102C000002018EB1877C8EB98EB18EB9A598A59A36
:102C100028A139A1F90180819AA58923808328A15F
:102C200039A1F90180819EA1892B80832E8D3F8D52
:102C3000F90180819DA1892B808380910201877891
:102C40008093020160910201812F99279C0143E04A
:102C5000359527954A95E1F72871AC0175E0440F49
:102C6000551F7A95E1F74076242B262B20930201FD
:102C70002EB1277C2EB96EB19C01220F331F220F7B
:102C8000331F2073AC01559547955595479548706E
:102C9000242B262B2EB9A59824B3880F991F807258
:102CA000822B84BB28A139A1F90180819AA58923AF
:102CB000808328A139A1F90180819EA1892B80837D
:102CC0008091020187788093020140910201C8013E
:102CD00053E0959587955A95E1F78871980165E0DD
:102CE000220F331F6A95E1F72076822B842B809385
:102CF00002018EB1877C8EB94EB1C801880F991F31
:102D0000880F991F807398013595279535952795DC
:102D10002870822B842B8EB9A59884B39801220F3A
:102D2000331F2072282B24BB28A139A1F9018081EF
:102D30009AA58923808328A139A1F90180819EA1C8
:102D4000892B80832E8D3F8DF901808199A5892360
:102D50008083809102018778809302018091020133
:102D6000809302018EB1877C8EB98EB18EB9A59801
:102D700084B384BB28A139A1F90180819AA5892354
:102D8000808328A139A1F90180819EA1892B8083AC
:102D900080910201877880930201809102018093E3
:102DA00002018EB1877C8EB9739AA59884B384BBD7
:102DB00028A139A1F90180819AA58923808328A1BE
:102DC00039A1F90180819EA1892B80832E8D3F8DB1
:102DD000F90180819DA1892B8083809102018778F0
:102DE00080930201609102018B2F99279C0103E0DF
:102DF000359527950A95E1F72871AC0135E0440F28
:102E0000551F3A95E1F74076242B262B209302019B
:102E10002EB1277C2EB96EB19C01220F331F220FD9
:102E2000331F2073AC0155954795559547954870CC
:102E3000242B262B2EB9A59824B3880F991F8072B6
:102E4000822B84BB28A139A1F90180819AA589230D
:102E5000808328A139A1F90180819EA1892B8083DB
:102E60008091020187788093020140910201CD0197
:102E7000F3E095958795FA95E1F788719D0115E046
:102E8000220F331F1A95E1F72076822B842B809333
:102E900002018EB1877C8EB94EB1CD01880F991F8A
:102EA000880F991F80739D01359527953595279536
:102EB0002870822B842B8EB9A59884B3AA0FBB1FD0
:102EC000A072A82BA4BBA8A1B9A18C919AA5892313
:102ED0008C93A8A1B9A18C919EA1892B8C93AE8DC6
:102EE000BF8D8C9199A589238C938091020187785D
:102EF0008093020180910201809302018EB1877C50
:102F00008EB98EB18EB9A59884B384BBA8A1B9A19E
:102F10008C919AA589238C93A8A1B9A18C919EA18B
:102F2000892B8C9380910201877880930201809194
:102F300002018062809302018EB1877C8EB9739A00
:102F4000A59884B384BBA8A1B9A18C919AA5892323
:102F50008C93A8A1B9A18C919EA1892B8C93AE8D45
:102F6000BF8D8C919DA1892B8C93809102018778D4
:102F70008093020160910201892D99279C0143E011
:102F8000359527954A95E1F72871AC0175E0440F16
:102F9000551F7A95E1F74076242B262B20930201CA
:102FA0002EB1277C2EB96EB19C01220F331F220F48
:102FB000331F2073AC01559547955595479548703B
:102FC000242B262B2EB9A59824B3880F991F807225
:102FD000822B84BBA8A1B9A18C919AA589238C933B
:102FE000A8A1B9A18C919EA1892B8C9380910201FB
:102FF00087788093020140910201C401B3E0959566
:103000008795BA95E1F78871940115E0220F331F77
:103010001A95E1F72076822B842B809302018EB1E2
:10302000877C8EB94EB1C401880F991F880F991FF4
:103030008073940135952795359527952870822BB7
:10304000842B8EB9A59884B3F401EE0FFF1FE072B4
:10305000E82BE4BBE8A1F9A180819AA589238083AC
:10306000E8A1F9A180819EA1892B8083EC8DFD8D43
:1030700080819CA1892B8083DF91CF911F910F913B
:10308000FF90EF90DF90CF90BF909F908F9008952A
:103090008FEE90E09C01241B350BAC01461B570BB7
:1030A0008FE391E0BC01601B710B8C010E191F09AD
:1030B0004801DA017B01B90100CBEFE3F1E0CF0178
:1030C000821B930B4F01861A970AD701A80184012E
:1030D000B7017C01F2CA813009F040C3EE8DFF8D4B
:1030E000808199A5892380838091020187788093CC
:1030F0000201809102018064809302018EB1877C7D
:103100008EB98EB18EB9A59884B384BBE8A1F9A11C
:1031100080819AA589238083E8A1F9A180819EA15D
:10312000892B8083EE8DFF8D80819DA1892B8083EB
:1031300080910201877880930201A0910201872F7C
:1031400099279C01F3E035952795FA95E1F72871C9
:10315000FC01B5E0EE0FFF1FBA95E1F7E0762E2BEC
:103160002A2B209302012EB1277C2EB9AEB19C01EF
:10317000220F331F220F331F2073FC01F595E795B3
:10318000F595E795E8702E2B2A2B2EB9A59824B338
:10319000880F991F8072822B84BBE8A1F9A18081DE
:1031A0009AA589238083E8A1F9A180819EA1892B1A
:1031B0008083EE8DFF8D808199A589238083809106
:1031C00002018778809302018091020180668093DA
:1031D00002018EB1877C8EB98EB18EB9A59884B369
:1031E00084BBE8A1F9A180819AA589238083E8A105
:1031F000F9A180819EA1892B8083EE8DFF8D808136
:103200009DA1892B808380910201877880930201A0
:10321000E0910201CB01F3E095958795FA95E1F7EE
:1032200088719B01A5E0220F331FAA95E1F7207654
:10323000822B8E2B809302018EB1877C8EB9EEB1EA
:10324000CB01880F991F880F991F80739B013595BB
:103250002795359527952870822B8E2B8EB9A598AA
:1032600024B3660F771F6072622B64BBE8A1F9A1DB
:1032700080819AA589238083E8A1F9A180819EA1FC
:10328000892B8083EE8DFF8D808199A58923808392
:10329000809102018778809302018091020180640D
:1032A000809302018EB1877C8EB9749AA59884B3FD
:1032B00084BBE8A1F9A180819AA589238083E8A134
:1032C000F9A180819EA1892B8083EE8DFF8D808165
:1032D0009DA1892B808380910201877880930201D0
:1032E000E09102018F2D99279C0173E03595279578
:1032F0007A95E1F72871BC01F5E0660F771FFA9522
:10330000E1F76076262B2E2B209302012EB1277C2D
:103310002EB9EEB19C01220F331F220F331F2073F1
:10332000BC0175956795759567956870262B2E2B52
:103330002EB9A59824B3880F991F8072822B84BB65
:10334000E8A1F9A180819AA589238083E8A1F9A148
:1033500080819EA1892B8083EE8DFF8D808199A530
:103360008923808380910201877880930201809174
:1033700002018066809302018EB1877C8EB9749AB7
:10338000A59884B384BBE8A1F9A180819AA589237B
:103390008083E8A1F9A180819EA1892B8083EE8D95
:1033A000FF8D80819DA1892B808380910201877888
:1033B0008093020160910201C70173E095958795A2
:1033C0007A95E1F788719701E5E0220F331FEA95BE
:1033D000E1F72076822B862B809302018EB1877CC9
:1033E0008EB96EB1C701880F991F880F991F80731E
:1033F000970135952795359527952870822B862B33
:103400008EB9A59884B39701220F331F2072282B01
:1034100024BBE8A1F9A180819AA589238083E8A132
:10342000F9A180819EA1892B8083EE8DFF8D808103
:1034300099A5892380838091020187788093020176
:1034400080910201809302018EB1877C8EB9749ABB
:10345000A59884B384BBE8A1F9A180819AA58923AA
:103460008083E8A1F9A180819EA1892B8083EE8DC4
:10347000FF8D80819DA1892B8083809102018778B7
:1034800080930201E0910201852F99279C0163E05E
:10349000359527956A95E1F72871BC01F5E0660F2F
:1034A000771FFA95E1F76076262B2E2B20930201E9
:1034B0002EB1277C2EB9EEB19C01220F331F220FB3
:1034C000331F2073BC017595679575956795687076
:1034D000262B2E2B2EB9A59824B3880F991F807206
:1034E000822B84BBE8A1F9A180819AA589238083DE
:1034F000E8A1F9A180819EA1892B8083EE8DFF8DAB
:10350000808199A5892380838091020187788093A7
:103510000201809102018062809302018EB1877C5A
:103520008EB9749AA59884B384BBE8A1F9A180816F
:103530009AA589238083E8A1F9A180819EA1892B86
:103540008083EE8DFF8D80819DA1892B808380916A
:10355000020187788093020160910201CA0173E041
:10356000959587957A95E1F788719A01E5E0220FA4
:10357000331FEA95E1F72076822B862B8093020198
:103580008EB1877C8EB96EB1CA01880F991F880FE2
:10359000991F80739A013595279535952795287041
:1035A000822B862B8EB9A59884B39A01220F331FE4
:1035B0002072282B24BBE8A1F9A180819AA5892338
:1035C0008083E8A1F9A180819EA1892B8083EE8D63
:1035D000FF8D808199A5892380838091020187785E
:1035E0008093020180910201809302018EB1877C59
:1035F0008EB9759AA59884B384BBE8A1F9A180819E
:103600009AA589238083E8A1F9A180819EA1892BB5
:103610008083EE8DFF8D80819DA1892B8083809199
:10362000020187788093020160910201812F99271E
:103630009C0143E0359527954A95E1F72871AC0147
:1036400075E0440F551F7A95E1F74076242B262B21
:10365000209302012EB1277C2EB96EB19C01220F5E
:10366000331F220F331F2073AC0155954795559595
:1036700047954870242B262B2EB9A59824B3880F84
:10368000991F8072822B84BBE8A1F9A180819AA541
:1036900089238083E8A1F9A180819EA1892B808361
:1036A000EE8DFF8D808199A5892380838091020111
:1036B00087788093020180910201806280930201E9
:1036C0008EB1877C8EB9759AA59884B384BBE8A126
:1036D000F9A180819AA589238083E8A1F9A180813D
:1036E0009EA1892B8083EE8DFF8D80819DA1892BEA
:1036F00080838091020187788093020140910201CA
:10370000C801B3E095958795BA95E1F7887198015E
:1037100095E0220F331F9A95E1F72076822B842BB8
:10372000809302018EB1877C8EB94EB1C801880F9B
:10373000991F880F991F80739801359527953595A6
:1037400027952870822B842B8EB9A59884B3980175
:10375000220F331F2072282B24BB7CCC8250823056
:1037600008F084CC072E000C880B990BCB0177272F
:1037700066279A01550F440B550B262B372B482BE8
:10378000592B6AE2CE010E941C0DC701FF0CAA0B47
:10379000BB0BDC0199278827012E000C220B330B71
:1037A000A9019801282B392B4A2B5B2B6BE2CE0108
:1037B0000E941C0D5BCCCF92DF92EF92FF920F9391
:1037C0001F93CF93DF93EC010E948C07EC8DFD8D4E
:1037D000808198A5892380838B8D8111AEC0EE896D
:1037E000E15080E390E1E33038F4F0E0EE0FFF1FAA
:1037F000E95AF94F80819181EE8DFF8D208139A5A5
:103800002323208320910201277820930201209115
:103810000201209302012EB1277C2EB92EB12EB9C0
:10382000A59824B324BBE8A1F9A120813AA52323BC
:103830002083E8A1F9A120813EA1232B20832091A0
:103840000201277820930201209102012066209333
:1038500002012EB1277C2EB92EB12EB9A59824B322
:1038600024BBE8A1F9A120813AA523232083E8A164
:10387000F9A120813EA1232B2083EE8DFF8D208195
:103880003DA1232B20832091020127782093020160
:1038900020910201209302012EB1277C2EB92EB176
:1038A0002EB9A598A59AE8A1F9A120813AA52323CC
:1038B0002083E8A1F9A120813EA1232B2083209120
:1038C0000201277820930201209102012093020136
:1038D0002EB1277C2EB96EB19C01220F331F220F0F
:1038E000331F2073AC015595479555954795487002
:1038F000242B262B2EB9A59824B3880F991F8072EC
:10390000822B84BBE8A1F9A180819AA589238083B9
:10391000E8A1F9A180819EA1892B80830A851B855E
:1039200001501109288539852150310950E040E0C6
:1039300070E060E0CE010E942F138B8D813009F082
:1039400060C0EE89E15080E0E33020F4F0E0EC5A12
:10395000F94F8081EE8DFF8D908129A59223908370
:1039600090910201977890930201909102019064E6
:10397000909302019EB1977C9EB9749AA598A59ADE
:10398000E8A1F9A190812AA592239083E8A1F9A149
:1039900090812EA1922B9083EE8DFF8D90812DA191
:1039A000922B90839091020197789093020140911D
:1039B000020190E09C0153E0359527955A95E1F777
:1039C0002871242B209302012EB1277C2EB92EB111
:1039D00095958795959587958870822B8EB9A59832
:1039E00084B384BBE8A1F9A180819AA5892380834F
:1039F000E8A1F9A180819EA1892B8083CE010E943C
:103A000091118B8D823009F073C08E89813009F459
:103A1000FAC008F4F4C0823009F4E9C0833009F434
:103A2000EAC0EE8DFF8D808199A5892380838091E6
:103A30000201877880930201809102018064809363
:103A400002018EB1877C8EB98EB188618EB9A5983E
:103A5000A59AE8A1F9A180819AA589238083E8A18C
:103A6000F9A180819EA1892B8083EE8DFF8D8081BD
:103A70009DA1892B80838091020187788093020128
:103A800020910201C601E3E096958795EA95E1F75A
:103A90008871822B809302018EB1877C8EB98EB1A2
:103AA000D694C794D694C7949C2D9870C92E8062E2
:103AB000C82ACEB8A59884B384BBE8A1F9A18081B7
:103AC0009AA589238083E8A1F9A180819EA1892BF1
:103AD00080830A851B85015011092885398521506D
:103AE000310950E040E070E060E0CE010E942F1309
:103AF0008B8D833009F072C08E89813009F492C0B9
:103B000008F48CC0823009F482C0833009F482C08A
:103B1000EE8DFF8D808199A589238083809102019C
:103B20008778809302018091020180648093020172
:103B30008EB1877C8EB98EB188618EB9A598A59A11
:103B4000E8A1F9A180819AA589238083E8A1F9A140
:103B500080819EA1892B8083EE8DFF8D80819DA128
:103B6000892B8083809102018778809302012091C4
:103B70000201C70133E0969587953A95E1F7887180
:103B8000822B809302018EB1877C8EB98EB1F69420
:103B9000E794F694E7949E2D9870E92EE82AEEB803
:103BA000A59884B384BBE8A1F9A180819AA5892353
:103BB0008083E8A1F9A180819EA1892B80830A8559
:103BC0001B8501501109288539852150310950E0A4
:103BD00040E070E060E0CE010E942F13DF91CF91B2
:103BE0001F910F91FF90EF90DF90CF90089508E420
:103BF000C02ED12C16CF18E2C12ED12C12CFB8E88E
:103C0000CB2ED12C0ECFA8EECA2ED12C0ACFF12C60
:103C1000E12C7ECF70E6E72EF12C7ACF60ECE62E19
:103C2000F12C76CF50EAE52EF12C72CFEF92FF9275
:103C30000F931F93CF93DF93EC01790177FD7FC240
:103C400057FD7DC288859985681779070CF077C282
:103C50008A859B85481759070CF071C2EC8DFD8D44
:103C6000808198A5892380838B8D811183C28E8961
:103C7000823009F46BC2833009F475C2813031F4AB
:103C80008FEE90E0841B950BAB01BC01EE8DFF8D98
:103C9000808199A589238083809102018778809310
:103CA000020180910201809302018EB1877C8EB95E
:103CB0008EB18EB9A59884B384BBE8A1F9A18081A7
:103CC0009AA589238083E8A1F9A180819EA1892BEF
:103CD00080838091020187788093020180910201A4
:103CE000809302018EB1877C8EB9739AA59884B3B4
:103CF00084BBE8A1F9A180819AA589238083E8A1EA
:103D0000F9A180819EA1892B8083EE8DFF8D80811A
:103D10009DA1892B80838091020187788093020185
:103D2000A0910201872F99279C01E3E03595279503
:103D3000EA95E1F72871FC01B5E0EE0FFF1FBA9597
:103D4000E1F7E0762E2B2A2B209302012EB1277C5F
:103D50002EB9AEB19C01220F331F220F331F2073E7
:103D6000FC01F595E795F595E795E8702E2B2A2B44
:103D70002EB9A59824B3880F991F8072822B84BB1B
:103D8000E8A1F9A180819AA589238083E8A1F9A1FE
:103D900080819EA1892B8083809102018778809306
:103DA0000201E0910201CB01F3E095958795FA9528
:103DB000E1F788719B01A5E0220F331FAA95E1F777
:103DC0002076822B8E2B809302018EB1877C8EB958
:103DD000EEB1CB01880F991F880F991F80739B014B
:103DE00035952795359527952870822B8E2B8EB982
:103DF000A59884B3660F771F6072682B64BBE8A137
:103E0000F9A180819AA589238083E8A1F9A1808105
:103E10009EA1892B8083EE8DFF8D808199A58923BA
:103E20008083809102018778809302018091020152
:103E3000809302018EB1877C8EB98EB18EB9A59820
:103E400084B384BBE8A1F9A180819AA589238083EA
:103E5000E8A1F9A180819EA1892B80838091020134
:103E60008778809302018091020180628093020131
:103E70008EB1877C8EB9739AA59884B384BBE8A170
:103E8000F9A180819AA589238083E8A1F9A1808185
:103E90009EA1892B8083EE8DFF8D80819DA1892B32
:103EA000808380910201877880930201E091020172
:103EB000852F99279C0163E0359527956A95E1F751
:103EC0002871BC01F5E0660F771FFA95E1F760767F
:103ED000262B2E2B209302012EB1277C2EB9EEB17A
:103EE0009C01220F331F220F331F2073BC017595D5
:103EF0006795759567956870262B2E2B2EB9A5981A
:103F000024B3880F991F8072822B84BBE8A1F9A18A
:103F100080819AA589238083E8A1F9A180819EA14F
:103F2000892B8083809102018778809302016091C0
:103F30000201CA0103E0959587950A95E1F788711A
:103F40009A0195E0220F331F9A95E1F72076822B94
:103F5000862B809302018EB1877C8EB96EB1CA0127
:103F6000880F991F880F991F80739A01359527959F
:103F7000359527952870822B862B8EB9A59884B30A
:103F8000440F551F4072482B44BBE8A1F9A1808122
:103F90009AA589238083E8A1F9A180819EA1892B1C
:103FA0008083EE8DFF8D808199A589238083809108
:103FB00002018778809302018091020180930201BF
:103FC0008EB1877C8EB98EB18EB9A59884B384BB2F
:103FD000E8A1F9A180819AA589238083E8A1F9A1AC
:103FE00080819EA1892B80838091020187788093B4
:103FF0000201809102018064809302018EB1877C6E
:104000008EB9739AA59884B384BBE8A1F9A1808185
:104010009AA589238083E8A1F9A180819EA1892B9B
:104020008083EE8DFF8D80819DA1892B808380917F
:104030000201877880930201609102018F2D9927F8
:104040009C01A3E035952795AA95E1F72871AC016D
:10405000B5E0440F551FBA95E1F74076242B262B87
:10406000209302012EB1277C2EB96EB19C01220F44
:10407000331F220F331F2073AC015595479555957B
:1040800047954870242B262B2EB9A59824B3880F6A
:10409000991F8072822B84BBE8A1F9A180819AA527
:1040A00089238083E8A1F9A180819EA1892B808347
:1040B0008091020187788093020140910201C7013B
:1040C00053E0959587955A95E1F78871970165E0DA
:1040D000220F331F6A95E1F72076822B842B809381
:1040E00002018EB1877C8EB94EB1C701880F991F2E
:1040F000880F991F807397013595279535952795DA
:104100002870822B842B8EB9A59884B3EE0CFF1CEB
:104110003E2D3072E32EE82AE4BAE8A1F9A18081AD
:104120009AA589238083E8A1F9A180819EA1892B8A
:104130008083EC8DFD8D80819CA1892B8083DF9114
:10414000CF911F910F91FF90EF9008958FEE90E027
:104150009C01261B370BB9018FE391E09C01241BC6
:10416000350BA90193CD8FE391E0861B970BBA0124
:10417000AC018CCD813009F0A1C2EE89E15080E024
:10418000E33020F4F0E0EC5AF94F8081EE8DFF8DA2
:10419000908129A592239083909102019778909322
:1041A0000201909102019064909302019EB1977C6C
:1041B0009EB9749AA598A59AE8A1F9A190812AA51B
:1041C00092239083E8A1F9A190812EA1922B908354
:1041D000EE8DFF8D90812DA1922B90839091020105
:1041E000977890930201E091020190E09C01F3E046
:1041F00035952795FA95E1F728712E2B209302012A
:104200002EB1277C2EB92EB19595879595958795DA
:104210008870822B8EB9A59884B384BBE8A1F9A1DC
:1042200080819AA589238083E8A1F9A180819EA13C
:10423000892B8083EE8DFF8D808199A589238083D2
:10424000809102018778809302018091020180644D
:10425000809302018EB1877C8EB98EB18EB9A598FC
:1042600084B384BBE8A1F9A180819AA589238083C6
:10427000E8A1F9A180819EA1892B8083EE8DFF8D1D
:1042800080819DA1892B8083809102018778809312
:104290000201A0910201872F99279C0113E0359517
:1042A00027951A95E1F72871FC0105E0EE0FFF1F35
:1042B0000A95E1F7E0762E2B2A2B209302012EB1EE
:1042C000277C2EB9AEB19C01220F331F220F331F62
:1042D0002073FC01F595E795F595E795E8702E2B91
:1042E0002A2B2EB9A59824B3880F991F8072822B90
:1042F00084BBE8A1F9A180819AA589238083E8A1E4
:10430000F9A180819EA1892B8083EE8DFF8D808114
:1043100099A5892380838091020187788093020187
:10432000809102018066809302018EB1877C8EB9F4
:104330008EB18EB9A59884B384BBE8A1F9A1808120
:104340009AA589238083E8A1F9A180819EA1892B68
:104350008083EE8DFF8D80819DA1892B808380914C
:104360000201877880930201E0910201CB0103E012
:10437000959587950A95E1F788719B0195E0220F45
:10438000331F9A95E1F72076822B8E2B80930201C2
:104390008EB1877C8EB9EEB1CB01880F991F880F43
:1043A000991F80739B013595279535952795287022
:1043B000822B8E2B8EB9A59884B3660F771F6072FF
:1043C000682B64BBE8A1F9A180819AA58923808329
:1043D000E8A1F9A180819EA1892B8083EE8DFF8DBC
:1043E000808199A5892380838091020187788093B9
:1043F0000201809102018064809302018EB1877C6A
:104400008EB9749AA59884B384BBE8A1F9A1808180
:104410009AA589238083E8A1F9A180819EA1892B97
:104420008083EE8DFF8D80819DA1892B808380917B
:104430000201877880930201E0910201852F99277C
:104440009C0113E0359527951A95E1F72871BC0179
:1044500005E0660F771F0A95E1F76076262B2E2B75
:10446000209302012EB1277C2EB9EEB19C01220FC0
:10447000331F220F331F2073BC0175956795759507
:1044800067956870262B2E2B2EB9A59824B3880F1C
:10449000991F8072822B84BBE8A1F9A180819AA523
:1044A00089238083E8A1F9A180819EA1892B808343
:1044B000EE8DFF8D808199A58923808380910201F3
:1044C00087788093020180910201806680930201C7
:1044D0008EB1877C8EB9749AA59884B384BBE8A109
:1044E000F9A180819AA589238083E8A1F9A180811F
:1044F0009EA1892B8083EE8DFF8D80819DA1892BCC
:10450000808380910201877880930201609102018B
:10451000CA01B3E095958795BA95E1F788719A013C
:1045200015E0220F331F1A95E1F72076822B862B98
:10453000809302018EB1877C8EB96EB1CA01880F5B
:10454000991F880F991F80739A0135952795359586
:1045500027952870822B862B8EB9A59884B3440F9B
:10456000551F4072482B44BBE8A1F9A180819AA550
:1045700089238083E8A1F9A180819EA1892B808372
:10458000EE8DFF8D808199A5892380838091020122
:1045900087788093020180910201806480930201F8
:1045A0008EB1877C8EB9739AA59884B384BBE8A139
:1045B000F9A180819AA589238083E8A1F9A180814E
:1045C0009EA1892B8083EE8DFF8D80819DA1892BFB
:1045D00080838091020187788093020160910201BB
:1045E0008F2D99279C0143E0359527954A95E1F752
:1045F0002871AC0175E0440F551F7A95E1F74076BC
:10460000242B262B209302012EB1277C2EB96EB1CC
:104610009C01220F331F220F331F2073AC015595CD
:104620004795559547954870242B262B2EB9A5986C
:1046300024B3880F991F8072822B84BBE8A1F9A153
:1046400080819AA589238083E8A1F9A180819EA118
:10465000892B8083809102018778809302014091A9
:104660000201C701B3E095958795BA95E1F7887186
:10467000970115E0220F331F1A95E1F72076822B60
:10468000842B809302018EB1877C8EB94EB1C70115
:10469000880F991F880F991F80739701359527956B
:1046A000359527952870822B842B8EB9A59884B3D5
:1046B000EE0CFF1C9E2D9072E92E2DCD8250823083
:1046C00008F037CD0A851B850150110928853985E9
:1046D00021503109CE010E942F13EC8DFD8D808178
:1046E00098A589238083EE8DFF8D808199A58923EC
:1046F000808380910201877880930201809102017A
:10470000809302018EB1877C8EB98EB188638EB999
:10471000A59884B384BBE8A1F9A180819AA58923D7
:104720008083E8A1F9A180819EA1892B8083EE8DF1
:10473000FF8D80819DA1892B8083809102018778E4
:1047400080930201909102018F2D86958695869522
:104750008871892B9F2D9295990F9076892B809344
:1047600002018EB1877C8EB99EB18F2D869586957C
:104770008870892B9F2D990F990F9073892B8EB973
:10478000A59894B38F2D880F8072892B84BBE8A1E4
:10479000F9A180819AA589238083E8A1F9A180816C
:1047A0009EA1892B808380910201877880930201EA
:1047B00020910201C70133E0969587953A95E1F77C
:1047C00088719E2D9295990F9076892B822B8093DC
:1047D00002018EB1877C8EB99EB18E2D880F880F15
:1047E0008073970136952795369527952870822BEB
:1047F000892B8EB9A59884B3EE0C2E2D2072E22E53
:104800008ACCEF92FF920F931F93CF93DF93EC012B
:104810007B018B8D81116AC1EE89E150E33008F094
:1048200060C1F0E0DF01AF5AB94F8C9190E0EE0F1C
:10483000FF1FE55BF94F50814181EC8DFD8D20819B
:1048400038A523232083EE8DFF8D208139A52323D6
:1048500020832091020127782093020120910201F8
:10486000209302012EB1277C2EB92EB12EB9A59826
:1048700024B324BBE8A1F9A120813AA523232083F6
:10488000E8A1F9A120813EA1232B208320910201E0
:1048900027782093020120910201209302012EB17A
:1048A000277C2EB9739AA59824B324BBE8A1F9A15B
:1048B00020813AA523232083E8A1F9A120813EA1EC
:1048C000232B2083EE8DFF8D20813DA1232B208380
:1048D0002091020127782093020120910201209368
:1048E00002012EB1277C2EB92EB12EB9A59824B382
:1048F00024BBE8A1F9A120813AA523232083E8A1C4
:10490000F9A120813EA1232B208320910201277849
:1049100020930201E09102019C0163E03595279507
:104920006A95E1F72871BC01F5E0660F771FFA95EB
:10493000E1F76076262B2E2B209302012EB1277CE7
:104940002EB96EB19C01220F331F220F331F20732B
:1049500095958795959587958870822B862B8EB92E
:10496000A59884B384BBE8A1F9A180819AA5892385
:104970008083E8A1F9A180819EA1892B8083EE8D9F
:10498000FF8D808199A5892380838091020187789A
:104990008093020180910201809302018EB1877C95
:1049A0008EB98EB18EB9A59884B384BBE8A1F9A164
:1049B00080819AA589238083E8A1F9A180819EA1A5
:1049C000892B8083809102018778809302018091F6
:1049D00002018062809302018EB1877C8EB9739A46
:1049E000A59884B384BBE8A1F9A180819AA5892305
:1049F0008083E8A1F9A180819EA1892B8083EE8D1F
:104A0000FF8D80819DA1892B808380910201877811
:104A10008093020120910201842F90E015E0880F1D
:104A2000991F1A95E1F7822B809302018EB1877C42
:104A30008EB98EB18EB9A59884B384BBE8A1F9A1D3
:104A400080819AA589238083E8A1F9A180819EA114
:104A5000892B808380910201877880930201609185
:104A60000201852F942F9C0105E0220F331F0A9528
:104A7000E1F72076262B209302012EB1277C2EB958
:104A80006EB19C01220F331F220F331F2073AC0124
:104A900055954795559547954870242B262B2EB94B
:104AA000A59824B3880F991F8072822B84BBE8A13C
:104AB000F9A180819AA589238083E8A1F9A1808149
:104AC0009EA1892B808320E03CE241E050E0B701C9
:104AD000CE01DF91CF911F910F91FF90EF900C9439
:104AE000860E50E040E090E080E0A7CE8150833019
:104AF00050F70A851B8501501109288539852150F9
:104B0000310950E040E070E060E0CE010E942F13D8
:104B1000DACF8F929F92AF92BF92CF92DF92EF92B5
:104B2000FF920F931F93CF93DF93EC01F901D8010C
:104B300047011E161F06ECF41A161B06D4F4A884AF
:104B4000B9846A157B05ACF48A859B85481759079B
:104B500084F47901E60EF71E97012150310937FDE3
:104B600008C06801C40ED51E86010150110917FF47
:104B700056C0DF91CF911F910F91FF90EF90DF9082
:104B8000CF90BF90AF909F908F90089570E060E0BD
:104B900057FD33C06D012A153B0534F095012150B6
:104BA00031097501E61AF70A0817190734F08C0164
:104BB000015011096C01C41AD50ACE010E942F13AD
:104BC0009701D6010E9455849B01AC01B401CE012E
:104BD0000E94860E8B8D811113C00A851B850150A2
:104BE0001109288539852150310950E040E070E0F5
:104BF00060E0CE010E942F13BCCF50E040E0CBCF4D
:104C0000CE01DF91CF911F910F91FF90EF90DF9038
:104C1000CF90BF90AF909F908F900C94911177FDA3
:104C2000B5CF7F01B5CFCF92DF92EF92FF920F9376
:104C30001F93CF93DF93EC016901780112161306DD
:104C40000CF03FC077FD3DC08885998568177907CE
:104C5000C4F58A859B85481759079CF5240F351F95
:104C600089010150110917FD2CC057FF03C06901CC
:104C700050E040E00817190734F08C010150110989
:104C80006C01C41AD50A9B01CE010E942F13960114
:104C9000DD0C440B550BB701CE010E94860E8B8DA7
:104CA000811118C00A851B85015011092885398595
:104CB0002150310950E040E070E060E0CE010E94F8
:104CC0002F13DF91CF911F910F91FF90EF90DF9005
:104CD000CF900895CE01DF91CF911F910F91FF905A
:104CE000EF90DF90CF900C949111CF92DF92EF92E2
:104CF000FF920F931F93CF93DF93EC01690178012B
:104D0000121613060CF040C057FD3EC08A859B85E5
:104D100048175907CCF58885998568177907A4F550
:104D2000F901E60FF71F9F012150310937FD2CC013
:104D300077FF03C06F0170E060E02817390734F097
:104D40009C01215031096C01C61AD70A8A01CE0193
:104D50000E942F139601DD0C440B550BB701CE01B9
:104D60000E94860E8B8D811118C00A851B8501500B
:104D70001109288539852150310950E040E070E063
:104D800060E0CE010E942F13DF91CF911F910F9110
:104D9000FF90EF90DF90CF900895CE01DF91CF91FB
:104DA0001F910F91FF90EF90DF90CF900C94911195
:104DB000089590E080E008958EBD00000DB407FED8
:104DC000FDCF8EB50895EF92FF920F931F93CF936F
:104DD000DF931F921F92CDB7DEB78C017A0163304B
:104DE000710509F449C090F46130710509F1623030
:104DF0007105E1F1F80181A992A9A3A9B4A9F7016C
:104E000080839183A283B38380E049C066307105BB
:104E100088F7AE014F5F5F4F64E60E942C5D811101
:104E20003EC0298180E0922F990FB0E0A0E0E7CF4B
:104E3000AE014F5F5F4F64E40E942C5D81112FC073
:104E4000998120E0392F330FA90170E060E0232B16
:104E5000D1F0F7014083518362837383F80145AB3E
:104E600056AB67AB70AF91E096A319C0FC0181AD62
:104E700092ADA3ADB4ADC3CFFC01FD96808191810D
:104E8000A281B381BCCFF80145A956A967A970AD2D
:104E9000F7014083518362837383F80116A20F9058
:104EA0000F90DF91CF911F910F91FF90EF90089598
:104EB0008F929F92AF92BF92CF92DF92EF92FF922A
:104EC0000F931F93CF93DF93EC0165E50E942407B6
:104ED000882329F040E06EEBCE010E94F1068E019E
:104EE000075E1F4F5E0182E2A80EB11C480188E0F8
:104EF000C82ED12CF12CEE24E394CE010E949E0604
:104F00008111FE28EE0CE1E0CE1AD108B1F7F801CC
:104F1000F1928F01EA15FB0551F7D40129E0E0E099
:104F2000215089F08D918E27E82FEF70F0E0E15B42
:104F3000F74F9491E82FE295EF70F0E0E15AF74FC8
:104F4000E491E927EDCF81E099A19E1380E0DF9104
:104F5000CF911F910F91FF90EF90DF90CF90BF9076
:104F6000AF909F908F9008954F925F926F927F9233
:104F7000BF92CF92DF92EF92FF920F931F93CF9346
:104F8000DF9300D01F92CDB7DEB78A01AE014F5F2D
:104F90005F4F0E948760B82E81112AC069817A8193
:104FA0008B819C8128EE422E23E0522E612C712CA5
:104FB000A30192010E94828269017A019B01AC01E6
:104FC000AFEFBFEF0E9472826C507E4F8F4F9F4FAA
:104FD000A30192010E9482827601DD24CC24C20EBC
:104FE000D31EE41EF51EF801C082D182E282F38254
:104FF0008B2D0F900F900F900F90DF91CF911F91FD
:105000000F91FF90EF90DF90CF90BF907F906F90C7
:105010005F904F900895CF92DF92EF92FF920F939F
:105020001F93CF93DF936B017A01EC01C557D84FE3
:1050300028813CE0389F8001399F100D112427FF03
:1050400024C0FB011182108288818F5F8883888150
:105050009801280F311D87FD3A95C9012091B50BA4
:10506000F6012817190629F024F088818C300CF4F9
:105070003CC080819181049680349C4908F475C0BD
:10508000F60180819181049672C088819801280F71
:10509000311D87FD3A95C9012091B50B28171906D6
:1050A00099F294F28881A801480F511D87FD5A9505
:1050B000FA01EE0FFF1FE40FF51FEB5DF44F808147
:1050C00086FFC2CF8881F801E80FF11D87FDFA95B0
:1050D000CF01EE0FFF1FE80FF91FEB5DF44F80814A
:1050E00060E08F730E943F59AFCF8081918128810A
:1050F000A801420F511D27FD5A959A01FA01EE0FA2
:10510000FF1FE20FF31FEB5DF44F21813281820F0D
:10511000931FF7019183808388819801280F311DA7
:1051200087FD3A95F901EE0FFF1FE20FF31FEB5DCC
:10513000F44F808186FF20C08881080F111D87FDF4
:105140001A95F801EE0FFF1FE00FF11FEB5DF44F12
:10515000808161E08F73DF91CF911F910F91FF905C
:10516000EF90DF90CF900C943F5980E49CE9F701D9
:10517000918380838FEF8883DF91CF911F910F916F
:10518000FF90EF90DF90CF9008950C9440822F9283
:105190003F924F925F926F927F928F929F92AF92C7
:1051A000BF92CF92DF92EF92FF920F931F93CF9314
:1051B000DF93CDB7DEB7EC970FB6F894DEBF0FBE26
:1051C000CDBF6C015B01DC0150961C9241E060E8B0
:1051D0000E94395E41E06FEFC6010E94395E40E0F7
:1051E00060E0C6010E94395EF601E95DFE4F408134
:1051F00061E9C6010E94395E41E060E0C6010E949B
:10520000395E40E06FEFC6010E94395E40E060E821
:10521000C6010E94395E41E060E0C6010E94395E2D
:10522000811116C091E09983412C512C3201BFEFBE
:105230004B1A5B0A6B0A7B0A998190FF2AC0811185
:10524000B3C2E8EC4E16510461047104D1F489EF45
:10525000EC960FB6F894DEBF0FBECDBFDF91CF91B5
:105260001F910F91FF90EF90DF90CF90BF90AF9084
:105270009F908F907F906F905F904F903F902F9076
:105280000895AE014F5F5F4F60E0C6010E94625D0E
:10529000CECFF8EC4F16510461047104C1F28111B4
:1052A000D7CFC6010E947D658111D2CF83E0F60180
:1052B000E15EFE4F8083B696E080F1800CE010E066
:1052C00020E030E0AE01465E5F4F64E134978081BC
:1052D0000E949B5C892B11F08CEEBACFD5015696BB
:1052E0001C925697F50110821182128213826CA1D2
:1052F00070E0762F66272DA1620F711D14961D9206
:105300001D921D921C921797E9A1F0E0FE2FEE2747
:10531000FF0F2F01712C612C1C964D925D926D92A6
:105320007C921F978BA190E0982F8827990F8C0172
:1053300030E020E050960D931D932D933C935397AE
:105340000C8D10E0102F00272D8D7801E20EF11C3E
:10535000FCAEEBAE5596FC92EE9254979A8CD60129
:10536000A75CBE4F2D913C9111975B978C90283E86
:1053700003E03007E9F1629FC001639F900D729FC7
:10538000900D11248C509E4F68EE73E00E9426848D
:10539000D6015D96ED90FD900D911C9190975A96D7
:1053A0002C91222329F12BAD3CAD2E9DA0012F9DE8
:1053B000500D3E9D500D1124452F5527E417F5073C
:1053C00041F460EE7AE8882009F4E2C068EB72E20A
:1053D00012C09F01DB010E94A48283017F01E41AB5
:1053E000F50A01091109A80197010E948282B901F9
:1053F000882009F4CDC0CB01969587959695879521
:10540000D50119969C938E9318976295660F660F37
:10541000607C57966C931FA61EA6892D90E07C0198
:1054200073E0F594E7947A95E1F7FAAEE9AE09AD49
:105430000F70902E09F4B1C089AD8D7011E018ABDA
:10544000853029F084EF800F843008F018AA41E0FD
:105450006FEFC6010E94395E811107C0AE01425D47
:105460005F4F66EBC6010E942C5D9EA520E0392FA0
:10547000330F790110E000E0E9AAFAAA0BAB1CABEC
:10548000811105C040E06FEFC6010E94395EF60150
:10549000EE5CFE4FE9A8FAA80BA91CA9E082F182F4
:1054A00002831383811175C1D60195968C909597CF
:1054B000882009F47EC0F501E484F584068517850B
:1054C0005A968C9120E030E0A901882399F0A489B4
:1054D000B589F601258D368D478D50A10E947282C7
:1054E0009B01AC0120583F4F4F4F5F4F232F342F6C
:1054F000452F55272E0D3F1D401F511FA8EEB3E02D
:105500000E94728270588F4F9F4FBC018827992745
:10551000F601E65DFE4F672B682B692B09F040C052
:105520008EEA97E8AFE8B2E080839183A283B383E9
:105530001EEAE12E17E8F12E0FE812E0EDAAFEAA0E
:105540000FAB18AFD5011B961C921E921A97AE0195
:10555000465D5F4F70E060E0C60135DC4AA55BA5A3
:105560006CA57DA5411551056105710559F0FF2414
:10557000F3940DA91EA92FA938AD40175107620752
:10558000730708F0F12C8823A9F0212C312C05C1D8
:10559000F50171876087178A3ECF01E008AB57CFCE
:1055A00010821182128213821DAA1EAA1FAA18AE8F
:1055B000C9CFF12CD60197963C90332009F4C3C093
:1055C000AE014A5D5F4F62E070E0C601FCDB4EA1B8
:1055D0005FA168A579A5411551056105710559F0CF
:1055E000EE24E39409A91AA92BA93CA94017510755
:1055F0006207730708F0E12C212C90E0811131C083
:10560000D60198962C90222009F4A3C00BAD1CADB6
:105610000115110509F499C0962D852D742D662765
:10562000980150E040E00E94828229013A01AE01D7
:105630004F5F5F4F63E070E0C601C5DB49815A816F
:105640006B817C81411551056105710531F091E057
:10565000441655066606770608F090E0882309F49C
:1056600079C0D5011B961C921E921A9780E081107A
:1056700002C0FF24F394F60136A1F3A6F4E09F16CE
:1056800009F4B0C021E0311120E0D6019C962C93A2
:10569000311002C0EE24E394F601E5A6211001C00A
:1056A00091E0D6019E969C93F501808F9601265B32
:1056B0003F4F99E1F901DE01119601900D929A9503
:1056C000E1F7D5011896ED91FC91199757969C91A9
:1056D00057971A966D917C911B971C96ED90FD90B3
:1056E0000D911C911F9750964D905D906D907C9000
:1056F000539754964D915C91559714968D909D902B
:10570000AD90BC9017978D829E82AF82B886FA8743
:10571000E9877C876B87ED86FE860F87188B498A21
:105720005A8A6B8A7C8A5E8B4D8B988F898F89E130
:10573000FE013196D90101900D928A95E1F7C601DB
:105740000E94605E85CDE12C5BCF412C512C320153
:105750006ECF90E018A98FEF113009F488CF890D32
:105760008330F0F026E0921639F139E0931621F1FA
:1057700089AD8D708830B1F041E0E41699F054E0C5
:10578000951639F1913001F1F41601F19F2DEF2CAE
:1057900068CF212C312C812CF12C90E0E12C61CFB1
:1057A00085E065CF83E063CFB8EC4B16510461040C
:1057B000710409F04DCD4BCD84E081105CCFF60132
:1057C00036A121E023A75ECF82E0F7CFE92E81E06A
:1057D000F4CF82E081104FCF81E0D6019B968C936D
:1057E000E12C82E021E051CF0F931F93CF93DF9301
:1057F0001F92CDB7DEB78B011982AE014F5F5F4FAD
:1058000061E00E94625D811116C0998194FB33278B
:1058100030F9F801308393FB332730F9328392FB60
:10582000332730F9318396FB222720F92383991FF0
:105830009927991F94830F90DF91CF911F910F911A
:1058400008955F926F927F928F929F92AF92BF92D4
:10585000CF92DF92EF92FF920F931F93CF93DF933C
:10586000CDB7DEB761970FB6F894DEBF0FBECDBFE0
:105870007C018B01FC018089FB018083AE014A5FC2
:105880005F4F68EFC7010E942C5D582E811138C10F
:10589000AE014F5F5F4F64E0C7010E94E45C582E89
:1058A00081112EC12E813F812115310569F050E013
:1058B00040E069817A818B819C810E948282F8011B
:1058C0002683378340875187F80186819781A08599
:1058D000B185F701868B978BA08FB18FF801128667
:1058E000AE014F5F5F4F60E2C7010E942C5D582EF2
:1058F000811106C189819A81009709F018C1F701C9
:10590000858D968DA78DB0A1F80185879687A7878D
:10591000B08BF701128EAE014F5F5F4F68E2C70197
:105920000E942C5D582E8111EBC089819A819F7055
:105930008115F8E09F0708F090514AEF489F9001C9
:10594000499F300D1124C901330FAA0BBB0BF8017D
:10595000818B928BA38BB48B5801F1E2AF0EB11CFB
:10596000470125E2820E911C380185E1680E711C09
:10597000D12CC12CA501B601C70125DA582E811101
:10598000BFC0F40181914F01F30181933F01FFEF0B
:10599000CF1ADF0A24E0A20EB11C86E0C816D1049B
:1059A00049F7AE014F5F5F4F61E0C7010E94625D42
:1059B000582E8111A5C08981F701E35EFE4F8083D7
:1059C00087FFC9C081E0F80181AFF80181ADF7011F
:1059D000E75BFF4F808380ED97E0A0E0B0E08A872F
:1059E0009B87AC87BD871E821F821886198686E337
:1059F0009BE0A0E0B0E0F80182839383A483B583A9
:105A0000BE016F5F7F4FC701EFDE582E811178C056
:105A10008981811107C08A81811104C08B8188230B
:105A200009F43EC0AE01465F5F4F62E0C7010E94CD
:105A300087608111C1C089818823A9F08A859B85EF
:105A4000AC85BD85825B9D4FAF4FBF4FF801428152
:105A5000538164817581840F951FA61FB71F8283B0
:105A60009383A483B5838B81882309F477C08A85C7
:105A70009B85AC85BD858E549D4FAF4FBF4F880F22
:105A8000991FAA1FBB1FF801428153816481758150
:105A9000840F951FA61FB71F82839383A483B583AA
:105AA0008C81811168C08D81882301F1AE01425F34
:105AB0005F4F64E0C7010E9487608E849F84A8883E
:105AC000B988F6E28F0EF2E09F1EA11CB11CF8010E
:105AD0004281538164817581480D591D6A1D7B1D6A
