:10000000DBC500000AC6000008C6000006C60000E6
:1000100004C6000002C6000000C60000FEC50000C5
:10002000FCC50000FAC50000F8C50000F6C50000D8
:10003000F4C500000C948451F0C50000EEC500002A
:10004000ECC500000C943752E8C50000E6C500007E
:10005000E4C50000E2C50000E0C500000C941650A5
:10006000DCC500000C94EC4F0C94C24FD6C50000C8
:10007000D4C50000D2C50000D0C50000CEC5000028
:100080000C940952CAC50000C8C50000C6C50000CE
:100090000C94984F0C946E4FC0C500000C946050A7
:1000A000BCC50000BAC500000C94DB51B6C5000009
:1000B000B4C50000B2C50000B0C500000C94AD513D
:1000C000ACC50000AAC50000A8C500000C94444FB0
:1000D0000C941A4FA2C500000C94F04E0C94C64E1E
:1000E0009CC5000007634236B79BD8A71A396856EB
:1000F00018AEBAAB558C1D3CB7CC5763BD6DEDFD4A
:10010000753EF6177231BF000000803F0800000006
:10011000BE922449123EABAAAA2ABECDCCCC4C3EFC
:1001200000000080BEABAAAAAA3E00000000BF00EB
:100130000000803F0000000000084178D3BB4387E7
:10014000D1133D190E3CC3BD4282AD2B3E68EC82FB
:1001500076BED98FE1A93E4C80EFFFBE01C4FF7F80
:100160003F000000000000407A10F35A00A0724ED9
:1001700018090010A5D4E80000E87648170000E44C
:100180000B54020000CA9A3B000000E1F505000094
:1001900080969800000040420F000000A0860100F9
:1001A0000000102700000000E803000000006400C9
:1001B000000000000A000000000001000000000034
:1001C0002C76D888DC674F0823DFC1DFAE59E1B158
:1001D000B796E5E3E453C63AE651997696E8E6C267
:1001E0008426EB898C9B62ED407C6FFCEFBC9C9F6E
:1001F00040F2BAA56FA5F490055A2AF75C936B6C90
:10020000F9676DC11BFCE0E40D47FEF520E6B50083
:10021000D0ED902E0300943577050080841E0800F1
:1002200000204E0A000000C80C333333330F986EA1
:1002300012831141EF8D2114893BE65516CFFEE65E
:10024000DB18D1844B381BF77C1D901DA4BBE42424
:10025000203284725E228100C9F124ECA1E53D27A1
:10026000496E6E6F477265656E5465636820696E8E
:10027000666F40696E6E6F677265656E7465636800
:100280002E667200496E6E6F477265656E546563C7
:100290006820696E666F40696E6E6F677265656E25
:1002A000746563682E6672002025200020432000BC
:1002B000202520002025200020432000205620005B
:1002C00020436D20002043200020252000204320D3
:1002D00000202520002043200048756D6964697462
:1002E000653A0054656D70657261747572653A00A7
:1002F00048756D696469746520736F6C3A00487560
:100300006D6964697465206578743A0054656D7030
:1003100065726174757265206578743A0054656E13
:1003200073696F6E2062617474657269653A004E1C
:100330006976656175206561753A0054656D706513
:10034000726174757265206561753A0048756D69F2
:100350006469746520736F6C3A0054656D706572E2
:10036000617475726520736F6C3A0048756D6964CD
:10037000697465206169723A0054656D70657261D7
:1003800074757265206169723A00434F4D504F5346
:10039000544500534552524500496E6E6F47726591
:1003A000656E5465636820696E666F40696E6E6F36
:1003B000677265656E746563682E66720053455496
:1003C00054494E47200000000000003E5B4F5B3E5A
:1003D0003E6B4F6B3E1C3E7C3E1C183C7E3C181C0A
:1003E000577D571C1C5E7F5E1C00183C1800FFE701
:1003F000C3E7FF0018241800FFE7DBE7FF30483AA7
:10040000060E2629792926407F050507407F052508
:100410003F5A3CE73C5A7F3E1C1C08081C1C3E7F90
:1004200014227F22145F5F005F5F06097F017F0057
:100430006689956A606060606094A2FFA294080477
:100440007E040810207E201008082A1C08081C2A98
:1004500008081E101010100C1E0C1E0C30383E38F0
:1004600030060E3E0E06000000000000005F000097
:100470000007000700147F147F14242A7F2A122308
:100480001308646236495620500008070300001C18
:100490002241000041221C002A1C7F1C2A08083E21
:1004A0000808008070300008080808080000606034
:1004B0000020100804023E5149453E00427F4000A2
:1004C00072494949462141494D331814127F10277A
:1004D000454545393C4A49493141211109073649C9
:1004E000494936464949291E00001400000040349D
:1004F00000000008142241141414141400412214A2
:100500000802015909063E415D594E7C1211127CC8
:100510007F494949363E414141227F4141413E7F29
:10052000494949417F090909013E414151737F0809
:1005300008087F00417F41002040413F017F0814AF
:1005400022417F404040407F021C027F7F04081010
:100550007F3E4141413E7F090909063E4151215EEE
:100560007F09192946264949493203017F01033F82
:100570004040403F1F2040201F3F4038403F631411
:1005800008146303047804036159494D43007F4113
:1005900041410204081020004141417F0402010250
:1005A0000440404040400003070800205454784075
:1005B0007F284444383844444428384444287F3809
:1005C0005454541800087E090218A4A49C787F088B
:1005D00004047800447D40002040403D007F102806
:1005E000440000417F40007C047804787C080404C7
:1005F000783844444438FC1824241818242418FC5F
:100600007C08040408485454542404043F44243C03
:100610004040207C1C2040201C3C4030403C442872
:100620001028444C9090907C4464544C440008360C
:10063000410000007700000041360800020102047A
:10064000023C2623263C1EA1A161123A4040207A9A
:1006500038545455592155557941225454784221E2
:100660005554784020545579400C1E527212395519
:100670005555593954545459395554545800004516
:100680007C410002457D420001457C407D121112F3
:100690007DF0282528F07C545545002054547C5486
:1006A0007C0A097F4932494949323A4444443A3242
:1006B0004A4848303A4141217A3A42402078009DE8
:1006C000A0A07D3D4242423D3D4040403D3C24FF94
:1006D0002424487E4943662B2FFC2F2BFF0929F643
:1006E00020C0887E090320545479410000447D4194
:1006F0003048484A32384040227A007A0A0A727DED
:100700000D19317D2629292F282629292926304807
:100710004D4020380808080808080808382F10C875
:10072000ACBA2F102834FA00007B000008142A14F9
:100730002222142A14085500550055AA55AA55AA74
:10074000FF55FF55FF000000FF00101010FF0014C0
:100750001414FF001010FF00FF1010F010F014141C
:1007600014FC001414F700FF0000FF00FF1414F441
:1007700004FC141417101F10101F101F1414141F42
:1007800000101010F0000000001F101010101F10BB
:10079000101010F010000000FF10101010101010BA
:1007A0001010FF10000000FF140000FF00FF000009
:1007B0001F10170000FC04F414141710171414F47D
:1007C00004F40000FF00F714141414141414F700B8
:1007D000F7141414171410101F101F141414F41409
:1007E0001010F010F000001F101F0000001F140078
:1007F0000000FC140000F010F01010FF10FF1414A3
:1008000014FF141010101F00000000F010FFFFFF75
:10081000FFFFF0F0F0F0F0FFFFFF0000000000FF2E
:10082000FF0F0F0F0F0F3844443844FC4A4A4A3434
:100830007E02020606027E027E026355494163384B
:1008400044443C04407E201E2006027E020299A5FC
:10085000E7A5991C2A492A1C4C7201724C304A4D5A
:100860004D303048784830BC625A463D3E4949498F
:10087000007E0101017E2A2A2A2A2A44445F444438
:1008800040514A444040444A51400000FF0103E0C7
:1008900080FF000008086B6B083612362436060FFE
:1008A000090F06000018180000001010003040FF6B
:1008B0000101001F01011E00191D1712003C3C3CE4
:1008C0003C0000000000005EBCE2613FDD83C29C92
:1008D0007E20A3FD1F41009D23BE46DB65F88C11E1
:1008E000AF32CA57E97400000A0B02090C0D0E085A
:1008F00007030401000000000000000000000000E9
:1009000000000000000000000000000000000000E7
:1009100000001211100000000000000000000000A4
:10092000000000000000000000000000204C75786E
:10093000200020436D20002043200020252000209F
:100940004320002070706D200020252000204320CF
:10095000004C756D696E6F736974653A004E697607
:10096000656175206561753A0054656D70657261E9
:1009700074757265206561753A0048756D696469C2
:10098000746520736F6C3A0054656D7065726174A4
:1009900075726520736F6C3A004330320048756D94
:1009A0006964697465206169723A0054656D7065A7
:1009B000726174757265206169723A0053455252D2
:1009C0004500204120002041200020562000202505
:1009D000200020432000436F7572616E742075748F
:1009E000696C6973653A00436F7572616E74206259
:1009F000617474657269653A0054656E73696F6EEF
:100A00002062617474657269653A0048756D696445
:100A10006974653A0054656D7065726174757265CC
:100A20003A00434F4D504F5354450020436D200032
:100A300020252000204320002025200020432000E6
:100A40004E6976656175206561753A004361742071
:100A500070726F6F663A0048756D696469746520DD
:100A6000736F6C3A0054656D706572617475726570
:100A700020736F6C3A0048756D69646974653A005B
:100A800054656D70657261747572653A004A4152C1
:100A900044494E494552450041647265737365206F
:100AA0004D4143203A00506173736572656C6C650B
:100AB000203A00416472657373652049703A0049B9
:100AC0006E666F726D6174696F6E20436F6E6E65D6
:100AD00078696F6E205749464900000021002400C4
:100AE00027002A002D00300033000101000004011E
:100AF00007010A01000020002300260029002C0025
:100B00002F0032000001000003010601090101026B
:100B1000102020080810204010204080020102010F
:100B200008040201010204081020408080402010C7
:100B30000804020180040201804020100804020120
:100B40000804020101020408102040800102040888
:100B50001020408000002200250028002B002E00DD
:100B60003100340002010000050108010B010505F8
:100B70000505070508080808020202020A0A080813
:100B80000404040401010101010101010303030341
:100B900003030303040707070C0C0C0C0C0C0C0CD0
:100BA0000202020206060606060606060B0B0B0BE1
:100BB0000B0B0B0B3D53066911241FBECFEFD1E287
:100BC000DEBFCDBF00E00CBF16E0A0E0B2E0E4E67F
:100BD000F8EE00E00BBF02C007900D92A035B10700
:100BE000D9F72DE0A0E5B6E001C01D92A13CB20707
:100BF000E1F715E0CBEDD5E000E006C02197010953
:100C0000802FFE010E948E71CA3DD10780E0080747
:100C1000A9F70E94A7560C942174F2C9CF93DF93D1
:100C2000EC019A01AB01E889F98982E08083211502
:100C300081EE38074105510581F160E079E08DE3EF
:100C400090E00E94856E2150310941095109569565
:100C5000479537952795EC85FD851082EE85FF85B4
:100C60002083188EEC89FD8986E08083EA89FB89E0
:100C7000808180618083EA89FB89808188608083AC
:100C8000EA89FB89808180688083EA89FB89808189
:100C90008F7D8083DF91CF910895E889F989108253
:100CA00020E1D9CF982F2091DE0781E0213208F092
:100CB00043C08091BA078111FCCF8091DD0732E0FB
:100CC0003093BA079093B9079FEF9093B8071092AB
:100CD000B7072093B607ADEBB7E0E6E9F7E090E0A1
:100CE000291331C01092950790919507880F892B91
:100CF0008093950780919407813049F5109294076D
:100D0000809195078093BB008091BC0083FDF8CF54
:100D100085EC8093BC008091BA078230E1F380912A
:100D2000B8078F3FB1F08091B8078032A1F0809171
:100D3000B807803391F084E01092BC071092DE0770
:100D40001092BB0708953D9131939F5FC9CF85EE07
:100D5000E0CF80E0F1CF82E0EFCF83E0EDCFCF9224
:100D6000DF92EF92FF92DC01A03282E0B807D4F567
:100D7000A53BB10514F0A4EBB0E04091F10A28E8DE
:100D800030E0241B310947FD3395220F331F220F1A
:100D9000331F6901330FEE08FF084091F20A28E57E
:100DA00032E0241B310947FD3395220F331F220FF8
:100DB000331F032E000C440B550B2C193D094E0913
:100DC0005F09B7FF02C0B0E0A0E00E947F6E24EB95
:100DD00030E040E050E00E94596EC20ED31EE41E87
:100DE000F51ED601E091F00AE03380F52091F10A7A
:100DF00088E890E0821B910927FD9395880F991F41
:100E0000880F991FA817B90784F02091F20A88E586
:100E100092E0821B910927FD9395880F991F880FF7
:100E2000991FA817B9070CF4CD010297880F991FD5
:100E30004FB7F8942E2F30E0F901EE0FFF1FE20FAD
:100E4000F31FED5AF54F928381834FBFFF90EF90D0
:100E5000DF90CF900895CF92DF92EF92FF92CF93E1
:100E6000DF93B091DE0BA0E08111AB2F8091DF0BFF
:100E700090E0880F991FAC014C50554FC090E40B87
:100E8000D090E50BE090E60BF090E70B30E020E02F
:100E9000FA01C591D491E881B90190E080E0EB239B
:100EA000EA130AC02F5F3F4F6C157D058E059F0525
:100EB00078F36FEF7FEFCB01DF91CF91FF90EF9051
:100EC000DF90CF900895DB0114964D915C911597BA
:100ED0006D917C91DC01ED91FC910280F381E02D1C
:100EE0001994AF92BF92CF92DF92EF92FF920F933D
:100EF0001F93CF93DF936C017B018B01040F151FB0
:100F0000EB015E01AE18BF08C017D10759F0699117
:100F1000D601ED91FC910190F081E02DC60119956B
:100F2000892B79F7C501DF91CF911F910F91FF9028
:100F3000EF90DF90CF90BF90AF900895FC01A08913
:100F4000B1898C91A689B78982FD0FC09C91818D52
:100F50008F5F8F73228D821749F0A18DAE0FBF2F47
:100F6000B11D5D969C93818F08958C910895FC012D
:100F7000538D448D252F30E0842F90E0821B930BFE
:100F8000541710F0CF96089501970895FC01918DA4
:100F9000828D981761F0A28DAE0FBF2FB11D5D96A7
:100FA0008C91928D9F5F9F73928F90E008958FEF49
:100FB0009FEF0895FC01918D828D981731F0828DFD
:100FC000E80FF11D858D90E008958FEF9FEF089554
:100FD000FC01918D228D892F90E0805C9F4F821BB8
:100FE00091098F73992708958FED97E0F1DF21E044
:100FF000892B09F420E0822F08958CE798E0E8DF40
:1010000021E0892B09F420E0822F089589E199E0FD
:10101000DFDF21E0892B09F420E0822F089586EBA1
:1010200099E0D6DF21E0892B09F420E0822F089592
:10103000FC01A48DA80FB92FB11DA35ABF4F2C914D
:10104000848D90E001968F739927848FA689B78944
:101050002C93A089B1898C91837080648C93938D3B
:10106000848D981306C00288F389E02D80818F7DDE
:1010700080830895EF92FF920F931F93CF93DF9396
:10108000EC0181E0888F9B8D8C8D98131AC0E889C4
:10109000F989808185FF15C09FB7F894EE89FF8993
:1010A0006083E889F98980818370806480839FBF31
:1010B00081E090E0DF91CF911F910F91FF90EF9031
:1010C0000895F62E0B8D10E00F5F1F4F0F73112741
:1010D000E02E8C8D8E110BC00FB607FCFACFE8897D
:1010E000F989808185FFF5CFCE01A2DFF2CFEB8DAC
:1010F000EC0FFD2FF11DE35AFF4FF0829FB7F894DC
:101100000B8FEA89FB8980818062D0CFCF93DF93F8
:10111000EC01888D8823B1F0AA89BB89E889F98917
:101120008C9185FD03C0808186FD0CC00FB607FC45
:10113000F7CF8C9185FFF2CF808185FFEDCFCE0177
:1011400077DFEACFDF91CF91089580E090E0892B9F
:1011500021F065DF81110E94000080E090E0892B82
:1011600021F054DF81110E94000080E090E0892B83
:1011700021F043DF81110E94000080E090E0892B84
:1011800021F032DF81110C940000089581508231EA
:1011900008F05AC0E82FF0E08827EE52F74F8F4F43
:1011A0000C948E71F208F608E408EA08EE082409A7
:1011B000F908FF08030909090D09110917091B0995
:1011C00024091F0925092909809180008F778093C0
:1011D00080000895809180008F7DF9CF80918000FC
:1011E000877FF5CF84B58F7784BD089584B58F7DD3
:1011F000FBCF8091B0008F778093B00008958091ED
:10120000B0008F7DF9CF809190008F778093900010
:101210000895809190008F7DF9CF80919000877F15
:10122000F5CF8091A0008F778093A00008958091E2
:10123000A0008F7DF9CF8091A000877FF5CF8091AE
:1012400020018F77809320010895809120018F7D68
:10125000F9CF80912001877FF5CFCF93DF93282F9F
:1012600030E0F901EA51F74F8491F901E25FF44F60
:10127000D491F901E259F44FC491CC2399F0811132
:1012800085DFEC2FF0E0EE0FFF1FEC50F54FA5913E
:10129000B491EC91ED2381E090E009F480E0DF91DE
:1012A000CF91089580E090E0FACF1F93CF93DF9322
:1012B000282F30E0F901EA51F74F8491F901E25FFC
:1012C000F44FD491F901E259F44FC491CC23A1F029
:1012D000162F81115BDFEC2FF0E0EE0FFF1FEC5AB1
:1012E000F44FA591B4918FB7F894EC91111108C007
:1012F000D095DE23DC938FBFDF91CF911F910895AE
:10130000DE2BF8CFCF93DF9390E0FC01E25FF44F48
:1013100024918259944FFC0184918823C9F090E074
:10132000880F991FFC01E652F54FA591B491FC017D
:10133000EC5AF44FC591D49161110DC09FB7F89448
:101340008C91209582238C938881282328839FBFAA
:10135000DF91CF910895623051F49FB7F8943C919A
:10136000822F809583238C93E8812E2BEFCF8FB72C
:10137000F894EC912E2B2C938FBFEACF982FE82F67
:10138000F0E0EA51F74FE491E150E23108F0B0C0EB
:10139000F0E08827E153F64F8F4F0C948E71E109EE
:1013A000E609EB09F509FF09780A090A110A190A81
:1013B000230A2D0A370A460A500A780A5A0A640A8A
:1013C0006E0A84B5806884BD67BD089584B5806267
:1013D00084BD68BD089580918000806880938000FE
:1013E00070938900609388000895809180008062E6
:1013F0008093800070938B0060938A0008958091A1
:10140000800088608093800070938D0060938C00D2
:1014100008958091B00080688093B0006093B3001D
:1014200008958091B00080628093B0006093B40012
:101430000895809190008068809390007093990047
:10144000609398000895809190008062809390004E
:1014500070939B0060939A0008958091900088603B
:101460008093900070939D0060939C0008958091FC
:10147000A00080688093A0008091A0008F7B809363
:10148000A0007093A9006093A80008958091A00027
:1014900080628093A0007093AB006093AA000895CF
:1014A0008091A00088608093A0007093AD0060934D
:1014B000AC00089580912001806880932001709392
:1014C0002901609328010895809120018062809312
:1014D000200170932B0160932A01089580912001CF
:1014E00088608093200170932D0160932C010895F2
:1014F00060E0892FDACE863308F0865320917B0096
:10150000982F9870277F922B90937B008770806430
:1015100080937C0080917A00806480937A0080912F
:101520007A0086FDFCCF8091780090917900089533
:101530003FB7F8948091CC069091CD06A091CE064D
:10154000B091CF0626B5A89B05C02F3F19F0019694
:10155000A11DB11D3FBFBA2FA92F982F8827BC010D
:10156000CD01620F711D811D911D42E0660F771F35
:10157000881F991F4A95D1F708958F929F92AF9235
:10158000BF92CF92DF92EF92FF926B017C01D0DF8E
:101590004B015C01C114D104E104F104B1F0C8DFD6
:1015A000681979098A099B09683E7340810591058C
:1015B00088F321E0C21AD108E108F10888EE880E0C
:1015C00083E0981EA11CB11CE5CFFF90EF90DF9047
:1015D000CF90BF90AF909F908F900895E091AC0D09
:1015E000F091AD0D80819091B40D892B8083E091B5
:1015F000B00DF091B10D80819091B60D892B808353
:10160000E091B20DF091B30D80819091B70D892BCF
:1016100080838091BC0D882359F060E046DE62E053
:1016200070E080E090E0A9DF61E08091BC0D3DDEDC
:10163000E091AC0DF091AD0D80819091B80D8923B2
:101640008083E091AE0DF091AF0D80819091B90D46
:1016500089238083809102018778809302018091A1
:101660000201809302018EB1877C8EB98EB18EB952
:10167000A59884B384BBE091B00DF091B10D808149
:101680009091BA0D89238083E091B00DF091B10D56
:1016900080819091B60D892B808383E0E091B00D1D
:1016A000F091B10D90812091BA0D92239083E09139
:1016B000B00DF091B10D90812091B60D922B9083D9
:1016C000815061F7E091AC0DF091AD0D808190916A
:1016D000B40D892B808308952FB7F8946091C806C4
:1016E0007091C9068091CA069091CB062FBF0895CC
:1016F000CF92DF92EF92FF920F931F93CF93DF93DE
:10170000CDB7DEB7C054D1400FB6F894DEBF0FBEE0
:10171000CDBFE2DF0091E00B1091E10B2091E20BD5
:101720003091E30B6B017C01C01AD10AE20AF30A83
:1017300097018601003D17402105310590F4809105
:10174000E80BC05CDE4F0FB6F894DEBF0FBECDBF16
:10175000DF91CF911F910F91FF90EF90DF90CF908D
:1017600008956093E00B7093E10B8093E20B9093EC
:10177000E30B1092DB0B1092DA0B1092D90B109244
:10178000D80B1092D70B62E08091DC0BBBDD61E0DF
:1017900070E080E090E0F1DE61E08091DC0BB2DD92
:1017A00060E08091DC0B81DD8091DD0B8551823022
:1017B00010F58BE291E10197F1F762E08091DC0B8B
:1017C000A1DD8091E90B90E08230910538F0880F1F
:1017D000991F880F991F05970197F1F7F89480E0FA
:1017E0003ADB6F3F7F4F8F4F9F4F59F41092E80BBA
:1017F000789480E0A6CF64E170E080E090E0BDDE08
:10180000DCCF81E028DB6F3F7F4F8F4F9F4F71F31D
:101810008E010F5F1F4F6E012FEBC21A2EEFD20AFF
:10182000780180E018DBF701608371838283938302
:1018300081E011DBF7016483758386839783F8E089
:10184000EF0EF11CEC14FD0461F7789430E020E019
:10185000F801C080D180E280F380448155816681A7
:101860007781FFEFCF16DF06EF06FF0631F04F3F1F
:101870008FEF58076807780719F41092E80BB9CF73
:10188000F90183E0F595E7958A95E1F7E952F44F80
:101890008081880FC416D506E606F70610F180830E
:1018A0002F5F3F4F085F1F4F2832310589F6409167
:1018B000DB0B2091D70B8091D80B280F3327331FD8
:1018C0008091D90B280F311D8091DA0B820F932F55
:1018D000911D99274817190681F681E08093E80B3E
:1018E00030CF8160DCCF85ED8093BC008091BC005F
:1018F00084FDFCCF1092BA0708952091A206260F0E
:101900003327331F21323105ECF42091BA07FC0153
:1019100090E080E0243069F082E00895A091A20672
:101920002191AC014058594FA40FB52FB11D2C93F4
:101930000196861798F38091A206680F6093A2061D
:1019400080E0089581E00895089508950895E09154
:101950007F0680917E06E81730F4F0E0E25AF94FF6
:10196000808190E008958FEF9FEF089590917F061A
:1019700080917E062FEF3FEF981748F4E92FF0E0B3
:10198000E25AF94F208130E09F5F90937F06C901B2
:10199000089580917E0690917F06891B990B08958A
:1019A000CF92DF92EF92FF920F931F93CF93DF932B
:1019B0007C01CB018A012091BB07222389F0EB0136
:1019C0006B01C40ED51ECC15DD0561F06991D70100
:1019D000ED91FC910190F081E02DC7011995F3CFB5
:1019E000642F8BDFC801DF91CF911F910F91FF9082
:1019F000EF90DF90CF900895CF93DF931F92CDB7F4
:101A0000DEB769832091BB072223F9F02091DE071E
:101A1000203258F021E030E0FC013383228390E053
:101A200080E00F90DF91CF9108958091BC07E82F5F
:101A3000F0E0E354F84F998190838F5F8093BC0767
:101A40008093DE0781E090E0ECCF61E0CE0101966B
:101A500054DFF8CFFC01858D8F3351F018F48F31AE
:101A600049F008958F3541F08F37D9F78CE008950C
:101A70008AE0089589E008958BE00895DC012C91B7
:101A80001196ED91FC91F8948181822B8183928152
:101A9000322F30959323928387E090E00197F1F7FE
:101AA00081818323818383E290E00197F1F7908124
:101AB0007894EFECF0E03197F1F7922381E009F4AC
:101AC00080E00895FC0190810180F281E02D292FB2
:101AD000209560FF14C0F8948281822382838181E3
:101AE000892B8183A3E2B0E01197F1F78281982BD3
:101AF0009283789487ED90E00197F1F70895F89438
:101B00008281822382838181892B8183AFEFB0E040
:101B10001197F1F78281982B928378948FE090E06F
:101B2000EBCFDF92EF92FF920F931F93CF93DF9350
:101B3000EC01D62EE42E08E010E0FF24F39461E0DF
:101B40008D2D8F2109F460E0CE01BCDFFF0C015028
:101B50001109A9F7E11010C0F894E981FA81918187
:101B60008881809589238183E981FA8192818881A6
:101B70008095892382837894DF91CF911F910F9173
:101B8000FF90EF90DF900895EF92FF920F931F93D5
:101B9000CF93DF93EC018881E981FA81F8949181F8
:101BA000282F20959223918378943DE743E050E0DD
:101BB000315039F1DA011197F1F790819823C1F38F
:101BC000F8949281922392839181982B91837894B7
:101BD000ABE7B7E01197F1F7F894918192239183E5
:101BE000A3E1B1E01197F1F790817894E3E6F6E094
:101BF0003197F1F7892329F46C3C79F050F465357D
:101C000089F080E0DF91CF911F910F91FF90EF90CD
:101C100008956C3E11F0603FA1F740E0CE0181DFF6
:101C200081E0F0CF40E065E5CE017BDF8E010F5E05
:101C30001F4F7E0189E1E80EF11CF80161918F01CF
:101C400040E0CE016EDFE016F106B9F7E9CF089566
:101C50008CBD9DBD0895FC01828193816817790731
:101C6000A4F026813781820F931F681779076CF4DF
:101C7000248135814217530744F080859185280FD0
:101C8000391F81E0421753070CF080E00895089552
:101C9000FC016370668B8481958126813781613078
:101CA00039F0633029F09187808733872287089540
:101CB000318720879387828708952F923F924F9292
:101CC0005F926F927F928F929F92AF92BF92CF92CC
:101CD000DF92EF92FF920F931F93CF93DF93CDB7D5
:101CE000DEB76A970FB6F894DEBF0FBECDBF9A8FEE
:101CF000898F7A8369834A01D22E18870F8337012F
:101D0000BC2CDC0159962D913C915A972115310537
:101D100009F015C118968D919C911997681779074C
:101D20000CF0D7C11A968D919C91481759070CF069
:101D3000D0C14C2C512CB6E0CB9E600D711D1124EE
:101D40007C876B87161617060CF0C3C1EA2DF0E0EE
:101D5000FA87E98793E0EE0FFF1F9A95E1F7F88B7A
:101D6000EF87CF01840F951F181619060CF0B1C12B
:101D7000A98DBA8D58968C91811104C0BFEABD150A
:101D800008F4D394A98DBA8DED91FC91119702843A
:101D9000F385E02DCD011995B5E0DB9EC00111243E
:101DA000E981FA81FC83EB83312C212C9C012A539D
:101DB0003C4F388F2F8B4A2D50E05E8B4D8BEF8937
:101DC000F88DE20DF31D44919E828D82D12CC12CA1
:101DD00069817A81620D731D7A8B698B842F90E003
:101DE0009C8B8B8BE98DFA8DA081B18140FF82C0E5
:101DF000F1E0BF126FC0AF126DC01C96ED91FC9167
:101E00002F813885A4014C0D5D1D69897A89898DE2
:101E10009A8D1995EB89FC89F595E7954E2F5FEF23
:101E2000C51AD50A6D817E818D899E89680F791FBB
:101E30007E836D8398E0C916D10481F6AFEF2A1A2C
:101E40003A0AEB81FC81E40DF51DFC83EB83F5E0A0
:101E50002F16310409F0B3CF2F81388526153705A9
:101E6000B9F0A98DBA8DED91FC91B1E0BB1257C0CC
:101E7000AB1255C069817A816B5F7F4F0088F18911
:101E8000E02D830128E030E0A401898D9A8D199519
:101E9000A98DBA8DED91FC9111970688F789E02DF7
:101EA000CD016A960FB6F894DEBF0FBECDBFDF91AD
:101EB000CF911F910F91FF90EF90DF90CF90BF9047
:101EC000AF909F908F907F906F905F904F903F90DA
:101ED0002F9019941E96ED91FC91EF80F88409855E
:101EE0001A8592014D815E816B817C81898D9A8DED
:101EF000199590CF2F8138852615370509F48ACF9B
:101F000031E0B31207C0A31205C01C96ED91FC91FD
:101F1000930178CF1E96ED91FC917301E0CF6B8514
:101F20007C85641975090684F785E02D73010F859A
:101F300018899201A401898D9A8D1995A9CFF9016B
:101F400034969491329745915491D91AB7E0DB9E1B
:101F5000400D511D1124F901259134913C8B2B8B9F
:101F6000FA0125903490FA013296749031963491AA
:101F7000398B329664903196449041E04C1518F0BC
:101F80004A1508F07FC0662D062C000C770B7C8369
:101F90006B83842D042C000C990B9E838D83A98D5B
:101FA000BA8DED91FC9111970284F385E02DCD015E
:101FB0001995512CD12CC12CEA2DF0E0FA87E98734
:101FC0002B2D30E03C872B87A401440D511D47FC8D
:101FD0005A95588F4F8B69817A81660D711D67FC08
:101FE0007A957E876D877989C71608F051CF2C2D99
:101FF00030E04D815E81420F531FA985BA854A9F0B
:10200000C0014B9F900D5A9F900D1124FC01E80DCB
:10201000F91DF88BEF87852D612C4F89588D420F64
:10202000531F5E8B4D8B671408F050C044244394BB
:10203000480E877041F4C1010196EB89FC89E20DDD
:10204000F31DD4901C01D7FE19C0A98DBA8DED9156
:10205000FC91662D70E0B1E0BB1219C0AB1217C045
:102060002D853E85620F731F0484F585E02D2F8139
:1020700038854D895E89898D9A8D1995DD0C63941B
:10208000842DD1CF1E821D821C821B8288CF4B8162
:102090005C81640F751FAB85BC856A9FC0016B9F17
:1020A000900D7A9F900D112469817A81680F791FB4
:1020B0000684F785E02DEF80F88409851A859D0157
:1020C0004F855889898D9A8D1995D8CF570CC3940F
:1020D0008ACF6A960FB6F894DEBF0FBECDBFDF91F0
:1020E000CF911F910F91FF90EF90DF90CF90BF9015
:1020F000AF909F908F907F906F905F904F903F90A8
:102100002F9008958F929F92AF92CF92EF92FF926D
:102110000F931F93CF93DF93EC01262F898D9A8D18
:10212000009709F050C06A30D1F41D861C868D8955
:1021300048E0849F900111248E859F85820F931F14
:102140009F878E8781E090E0DF91CF911F910F9163
:10215000FF90EF90CF90AF909F908F9008956D304B
:1021600089F3CC88AD888F898823C1F08C859D85C3
:1021700036E0C39E800D911D11244885598548176E
:10218000590764F44E855F851D861C8638E0A39E42
:10219000C0011124840F951F9F878E87EA88FB88D2
:1021A000088919894E855F856C857D85CE0185DD21
:1021B0002C898C859D8546E0249F800D911D1124DE
:1021C0009D878C87BFCF6A3069F41D861C86FC0111
:1021D0003696E4912D898E859F85E29F800D911D15
:1021E0001124AECF6D3009F4ADCFFC01349634919B
:1021F000631708F4A7CF3196E491E61708F4A2CF4D
:10220000FC01329685909490462F431B342F47E073
:10221000349F800C911C1124F40132963491319634
:10222000E4913323A1F1EE2391F1CC88F4013596AA
:10223000E491AD884F89442301F10E2E000CFF0B71
:10224000E30FF11DCE9EA001CF9E500D11246C8591
:102250007D85460F571F68857985641775076CF46F
:102260004E855F851D861C86FC013696E491AE9EE8
:10227000400D511D11245F874E87EA88FB8808892D
:1022800019894E855F856C857D85CE0116DDF4014B
:102290003496E4912C898C859D85E29F800D911D5B
:1022A00011248ECF0F931F93CF93DF938C01D0E037
:1022B000C0E0F801EC0FFD1F6491662339F080E95E
:1022C0009DE020DF892B11F02196F3CFCE01DF9125
:1022D000CF911F910F9108956F927F928F929F924D
:1022E000AF92BF92CF92DF92EF92FF920F931F9324
:1022F000CF93DF93EC016B015A0139014801E8816A
:10230000F9810284F385E02D1995E881F98102882D
:10231000F389E02D87019301A501B601CE0119953E
:10232000A501480D591D41505109E881F9810288E4
:10233000F389E02D9301B601CE011995E881F98169
:102340000088F189E02D9401A501B601CE0119950F
:10235000C60CD71CB60161507109E881F98100886B
:10236000F189E02D9401A501CE011995E881F9814B
:102370000688F789E02DCE01DF91CF911F910F9153
:10238000FF90EF90DF90CF90BF90AF909F908F9095
:102390007F906F9019942F923F924F925F926F921D
:1023A0007F928F929F92AF92BF92CF92DF92EF92E5
:1023B000FF920F931F93CF93DF93CDB7DEB72D9787
:1023C0000FB6F894DEBF0FBECDBF5C011B0158876E
:1023D0004F833D872C870987FC82EB82360181E0A1
:1023E00090E06C01C21AD30AC901919581959109B7
:1023F0009C01220F331F3A832983C70101969E83D4
:102400008D83F12CE12C44244394512CDA01119654
:10241000BB87AA872C853D85E216F3060CF070C0B9
:102420008C849D84D7FC0BC0490131E0831A91084C
:1024300089819A8102969A838983C80ED91E9FEF5B
:10244000E91AF90AA2E04A0E511CC40CD51C8E14DC
:102450009F0444F42C853D8528153905F1F49D86AB
:102460008C86D8CF9401220F331F4F81588548198D
:102470005909D501ED91FC91B9858D819E81280F77
:10248000391F0088F189E02D8301B101B13009F5D0
:102490006E0D7F1DC5011995DDCF9985913019F518
:1024A000920122503109AB81BC812A0F3B1F6C8500
:1024B0007D85620D731DD501ED91FC910088F18938
:1024C000E02D83014A855B854E195F09C501199589
:1024D000C6CF6E197F09C5011995AC85BD85A815B4
:1024E000B90509F4BCCF9201225031098B819C813E
:1024F000280F391FB101AC85BD856A1B7B0BDBCF73
:102500002D960FB6F894DEBF0FBECDBFDF91CF91F1
:102510001F910F91FF90EF90DF90CF90BF90AF9001
:102520009F908F907F906F905F904F903F902F90F3
:1025300008952F923F924F925F926F927F928F9267
:102540009F92AF92BF92CF92DF92EF92FF920F9342
:102550001F93CF93DF9300D000D0CDB7DEB79E831B
:102560008D834B013A016901802F21E030E0290180
:102570004C185D08222433242C183D08220C331CEF
:10258000B12CA12C01E010E0982F94709983A82F12
:10259000A270AA83B82FB870BB8381708C83AC14EF
:1025A000BD040CF0A7C057FC08C081E0C81AD108D0
:1025B00092E0290E311C420C531CAFEFAA1ABA0A42
:1025C0000E5F1F4F400E511EB981BB2311F1AD812B
:1025D000BE81ED91FC9111970484F585E02D970162
:1025E000A601460D571DB4016A0D7B1DCD0119953D
:1025F000AD81BE81ED91FC9111970484F585E02DAC
:102600009701A3014A0D5B1DB601680D791DCD012F
:102610001995BA81BB2311F1AD81BE81ED91FC9179
:1026200011970484F585E02D9701A3014C195D09EC
:10263000B4016A0D7B1DCD011995AD81BE81ED916F
:10264000FC9111970484F585E02D9701A3014A19A7
:102650005B09B601680D791DCD011995BB81BB23BE
:1026600011F1AD81BE81ED91FC9111970484F58546
:10267000E02D9701A3014A0D5B1DB4016C197D0982
:10268000CD011995AD81BE81ED91FC911197048426
:10269000F585E02D9701A601460D571DB4016A1975
:1026A0007B09CD011995BC81BB2309F478CFAD819D
:1026B000BE81ED91FC9111970484F585E02D970181
:1026C000A3014A195B09B4016C197D09CD01199563
:1026D000AD81BE81ED91FC9111970484F585E02DCB
:1026E0009701A3014C195D09B4016A197B09CD0159
:1026F000199555CF26960FB6F894DEBF0FBECDBF05
:10270000DF91CF911F910F91FF90EF90DF90CF90CD
:10271000BF90AF909F908F907F906F905F904F9001
:102720003F902F9008956F927F928F929F92AF92D9
:10273000BF92CF92DF92EF92FF920F931F93CF93AE
:10274000DF935C01EB016A01490138018701DC017B
:10275000ED91FC916217730719F5641675062CF05C
:10276000962D872D3A01C92ED82E960126193709A4
:102770002F5F3F4F048CF58DE02DA301BE01C501F5
:102780001995DF91CF911F910F91FF90EF90DF90FE
:10279000CF90BF90AF909F908F907F906F90089553
:1027A0004615570591F42617370724F0892D4B015C
:1027B000C22FD82F9E01281939092F5F3F4F068C51
:1027C000F78DE02DA601B401DACF0284F385E02D68
:1027D0001995D501ED91FC910488F589E02D8301CF
:1027E0009401A601BE01C5011995D501ED91FC9199
:1027F0000688F789E02DC501DF91CF911F910F91D8
:10280000FF90EF90DF90CF90BF90AF909F908F9010
:102810007F906F901994EF92FF920F931F93DC01BA
:102820001A960D911C911B9718962D913C91199712
:10283000ED91FC9100A0F1A1E02D7B0150E040E082
:1028400070E060E019951F910F91FF90EF9008954F
:102850004F925F926F927F928F929F92AF92BF92B0
:10286000CF92DF92EF92FF920F931F93CF93DF935C
:102870006C012B015A0139014801DC01ED91FC91F9
:102880000284F385E02D1995E201640C751CD601D4
:10289000ED91FC91C615D7055CF40088F189E02D17
:1028A00087019401A501BE01C60119952196EFCFBC
:1028B0000688F789E02DC601DF91CF911F910F9116
:1028C000FF90EF90DF90CF90BF90AF909F908F9050
:1028D0007F906F905F904F9019948F929F92AF92DC
:1028E000BF92CF92DF92EF92FF920F931F93CF93FD
:1028F000DF93EC015B014A016901E881F9810284FF
:10290000F385E02D199595012C0D3D1D21503109C0
:10291000E881F9810488F589E02D78018401A4011A
:10292000B501CE011995E881F9810688F789E02D76
:10293000CE01DF91CF911F910F91FF90EF90DF902B
:10294000CF90BF90AF909F908F9019948F929F924D
:10295000AF92BF92CF92DF92EF92FF920F931F93AD
:10296000CF93DF93EC015B014A0169017801E881B3
:10297000F9810284F385E02D1995C80CD91C8601D4
:1029800001501109E881F9810488F589E02D95014C
:10299000A401B501CE011995E881F9810688F7896E
:1029A000E02DCE01DF91CF911F910F91FF90EF901D
:1029B000DF90CF90BF90AF909F908F901994EF923F
:1029C000FF920F931F93DC01ED91FC9100A0F1A108
:1029D000E02D19951F910F91FF90EF9008950F939F
:1029E0001F93DC01ED91FC91068CF78DE02D19957C
:1029F0001F910F9108950F931F93DC01ED91FC91AE
:102A0000048CF58DE02D19951F910F910895DC012F
:102A1000ED91FC910084F185E02D19942F923F9265
:102A20004F925F926F927F928F929F92AF92BF92DE
:102A3000CF92DF92EF92FF920F931F93CF93DF938A
:102A400000D000D0CDB7DEB73C016A013E832D83B4
:102A5000FC82EB825801A41AB50AB7FE03C0B194F8
:102A6000A194B1088D809E80861A970A97FE03C0B4
:102A70009194819491088A149B045CF0902F812F8B
:102A80000D811E819D838E839C2D8D2D6B01692F61
:102A9000782F0C151D055CF09D818E817E836D83E2
:102AA000692F782F902F812F8601C92ED82E1601DD
:102AB000201A310A2B012D813E81421A530A57FEFA
:102AC00003C0519441945108710137FE03C03FEF98
:102AD000E31AF30AF594E7948D819E818617970790
:102AE0005CF5A1E0B0E0BA83A983C016D1064CF131
:102AF000D301ED91FC910484F585E02D2B813C817F
:102B0000A8016D817E818A149B041CF04D815E8139
:102B1000B801C3011995E418F508F7FE0AC02D8124
:102B20003E8189819A81280F391F3E832D83E20CD3
:102B3000F31C0F5F1F4FD9CF2FEF3FEF3A8329834D
:102B4000D4CF26960FB6F894DEBF0FBECDBFDF916F
:102B5000CF911F910F91FF90EF90DF90CF90BF909A
:102B6000AF909F908F907F906F905F904F903F902D
:102B70002F900895AF92BF92CF92DF92EF92FF9283
:102B80000F931F93CF93DF936B017A01EC01C75A28
:102B9000D94F28813CE0389F8001399F100D1124C6
:102BA000A090E30AB12C27FF1FC0FB011182108205
:102BB00088818F5F888388819801280F311D87FD68
:102BC0003A95F6012A153B051CF488818C30C4F136
:102BD00080819181049680349C4908F473C0F60189
:102BE00080819181049670C088819801280F311DE1
:102BF00087FD3A952A153B05DCF68881A801480F28
:102C0000511D87FD5A95FA01EE0FFF1FE40FF51FC6
:102C1000ED5AF54F808186FFCBCF8881F801E80F10
:102C2000F11D87FDFA95CF01EE0FFF1FE80FF91F89
:102C3000ED5AF54F808160E08F730E945509B8CF3F
:102C4000808191812881A801420F511D27FD5A954D
:102C50009A01FA01EE0FFF1FE20FF31FED5AF54F35
:102C600021813281820F931FF701918380838881B4
:102C70009801280F311D87FD3A95F901EE0FFF1FCE
:102C8000E20FF31FED5AF54F808186FF22C0888145
:102C9000080F111D87FD1A95F801EE0FFF1FE00FB9
:102CA000F11FED5AF54F808161E08F73DF91CF9175
:102CB0001F910F91FF90EF90DF90CF90BF90AF905A
:102CC0000C94550980E49CE9F701918380838FEF90
:102CD0008883DF91CF911F910F91FF90EF90DF904C
:102CE000CF90BF90AF9008958F929F92AF92BF9276
:102CF000CF92DF92EF92FF92CF93DF93FC01A48DEE
:102D0000B58D8C9190A589238C93A68DB78D8C91D0
:102D100091A589238C93A2E0B1E08C9187788C9364
:102D20008C9190E2699FB0011124682B6C938EB155
:102D3000877C8EB98EB188628EB9A59884B384BB26
:102D4000C0A1D1A1888192A589238883C0A1D1A1E6
:102D5000888196A1892B8883C68DD78D888195A17E
:102D6000892B888383E290E0EC012197F1F76C9145
:102D700067786C936C91C52EDD24EE24FF24490105
:102D80005A01CBE1B694A79497948794CA95D1F74A
:102D9000782D7871872E862A6C2D6295660F607665
:102DA000862A8C926EB1677C6EB96EB149015A0168
:102DB000DAE1B694A79497948794DA95D1F7782DB1
:102DC0007870872E862A6C2D660F660F6073862AB0
:102DD0008EB8A59864B3CC0C7C2D7072C72EC62A11
:102DE000C4BAC0A1D1A1688172A567236883C0A1BC
:102DF000D1A1688176A1672B6883EC012197F1F757
:102E00006C9167786C936C916A01EE24FF24490100
:102E10005A01C3E1B694A79497948794CA95D1F7C1
:102E2000782D7871872E862A6C2D6295660F6076D4
:102E3000862A8C926EB1677C6EB96EB149015A01D7
:102E4000D2E1B694A79497948794DA95D1F7782D28
:102E50007870872E862A6C2D660F660F6073862A1F
:102E60008EB8A59864B3CC0C7C2D7072C72EC62A80
:102E7000C4BAC0A1D1A1688172A567236883C0A12B
:102E8000D1A1688176A1672B6883EC012197F1F7C6
:102E90006C9167786C936C91C32ED42EE52EFF2431
:102EA00049015A01CBE0B694A79497948794CA95A8
:102EB000D1F7782D7871872E862A6C2D6295660F52
:102EC0006076862A8C926EB1677C6EB96EB14901CC
:102ED0005A01DAE0B694A79497948794DA95D1F7DB
:102EE000782D7870872E862A6C2D660F660F60739A
:102EF000862A8EB8A59864B3CC0C7C2D7072C72E30
:102F0000C62AC4BAC0A1D1A1688172A5672368830B
:102F1000C0A1D1A1688176A1672B68830197F1F7E1
:102F20008C9187788C93CC91CA01B901D3E09695A6
:102F3000879577956795DA95D1F76871822F829595
:102F4000880F8076682B6C2B6C938EB1877C8EB942
:102F50009EB1822F880F880F807369017A0132E059
:102F6000F694E794D794C7943A95D1F76C2D68708E
:102F7000862B892B8EB9A59884B3220F2072282B1B
:102F800024BBA0A1B1A18C9192A589238C93A0A16F
:102F9000B1A18C9196A1892B8C93A48DB58D8C9128
:102FA00094A1892B8C93DF91CF91FF90EF90DF90CC
:102FB000CF90BF90AF909F908F900895AF92BF92A7
:102FC000CF92DF92EF92FF920F931F93CF93DF93F5
:102FD000FC0169017A01A48DB58D8C9190A589239E
:102FE0008C93A68DB78D8C9191A589238C93838D1D
:102FF000823009F02CC18091020187788093020110
:1030000080910201809302018EB1877C8EB98EB1CE
:1030100088638EB9A59884B384BBA0A1B1A18C911B
:1030200092A589238C93A0A1B1A18C9196A1892B03
:103030008C93A68DB78D8C9195A1892B8C938091C3
:10304000020187788093020120910201872F90E08E
:10305000AC0133E0559547953A95E1F7142F187177
:10306000AC01A5E0440F551FAA95E1F74076142B5B
:10307000212B209302012EB1277C2EB92EB1AC0159
:10308000440F551F440F551FD42FD073AC015595D5
:103090004795559547954870D42B2D2B2EB9A5985B
:1030A00024B3880F991FC82FC072822F8C2B84BB2A
:1030B000A0A1B1A18C9192A589238C93A0A1B1A1CB
:1030C0008C9196A1892B8C938091020187788093B3
:1030D000020120910201CB01AB0133E055954795E8
:1030E0003A95E1F7B42FB871AB01A5E0440F551F35
:1030F000AA95E1F74076BB2EB42A2B292093020132
:103100002EB1277C2EB92EB1AB01440F551F440FB1
:10311000551FA42FA073AB0155954795559547951D
:103120004870AA2EA42A2A292EB9A59824B3880F5C
:10313000991F8072922F982B94BB20A131A1D901A5
:103140009C9142A594239C9340A151A1DA019C91AA
:1031500026A1922B9C93A701960121503109410988
:10316000510969017A0146E0F694E794D794C7942F
:103170004A95D1F776017613B8C0B1E0EB1AF108A1
:1031800008F496C080E1A0A1B1A19C9162A596230C
:103190009C93A0A1B1A19C9166A1962B9C93A0A108
:1031A000B1A19C9162A596239C93A0A1B1A19C91F1
:1031B00066A1962B9C93A0A1B1A19C9162A5962398
:1031C0009C93A0A1B1A19C9166A1962B9C93A0A1D8
:1031D000B1A19C9162A596239C93A0A1B1A19C91C1
:1031E00066A1962B9C93A0A1B1A19C9162A5962368
:1031F0009C93A0A1B1A19C9166A1962B9C93A0A1A8
:10320000B1A19C9162A596239C93A0A1B1A19C9190
:1032100066A1962B9C93A0A1B1A19C9162A5962337
:103220009C93A0A1B1A19C9166A1962B9C93A0A177
:10323000B1A19C9162A596239C93A0A1B1A19C9160
:1032400066A1962B9C93815009F09DCF96CF81115A
:103250002CC0809102018778809302018091020145
:10326000809302018EB1877C8EB98EB18EB9A598FC
:1032700084B384BBA0A1B1A18C9192A589238C9326
:10328000A0A1B1A18C9196A1892B8C938091020170
:10329000877880930201809102018064809302010B
:1032A0008EB1877C8EB9739AB5CE833079F7A3CE71
:1032B0002F73215008F47CC1A0A1B1A18C9192A5DB
:1032C00089238C93A0A1B1A18C9196A1892B8C9379
:1032D000A0A1B1A18C9192A589238C93A0A1B1A1A9
:1032E0008C9196A1892B8C93E4CF91E0E91AF10897
:1032F00008F415C190E160910201677860930201C2
:1033000060910201612B609302016EB1677C6EB91E
:103310006EB16D2B6EB9A59864B36C2B64BB60A1C4
:1033200071A1DB010C91D2A40D210C9360A171A1BC
:10333000DB010C91D6A00D290C93609102016778F6
:1033400060930201609102016B29609302016EB1EA
:10335000677C6EB96EB16A296EB9A59864B3682BA3
:1033600064BB60A171A1DB010C91D2A40D210C936F
:1033700060A171A1DB010C91D6A00D290C93609185
:10338000020167786093020160910201612B6093F2
:1033900002016EB1677C6EB96EB16D2B6EB9A598E6
:1033A00064B36C2B64BB60A171A1DB010C91D2A44E
:1033B0000D210C9360A171A1DB010C91D6A00D2908
:1033C0000C936091020167786093020160910201A1
:1033D0006B29609302016EB1677C6EB96EB16A2988
:1033E0006EB9A59864B3682B64BB60A171A1DB01C1
:1033F0000C91D2A40D210C9360A171A1DB010C9161
:10340000D6A00D290C9360910201677860930201A8
:1034100060910201612B609302016EB1677C6EB90D
:103420006EB16D2B6EB9A59864B36C2B64BB60A1B3
:1034300071A1DB010C91D2A40D210C9360A171A1AB
:10344000DB010C91D6A00D290C93609102016778E5
:1034500060930201609102016B29609302016EB1D9
:10346000677C6EB96EB16A296EB9A59864B3682B92
:1034700064BB60A171A1DB010C91D2A40D210C935E
:1034800060A171A1DB010C91D6A00D290C93609174
:10349000020167786093020160910201612B6093E1
:1034A00002016EB1677C6EB96EB16D2B6EB9A598D5
:1034B00064B36C2B64BB60A171A1DB010C91D2A43D
:1034C0000D210C9360A171A1DB010C91D6A00D29F7
:1034D0000C93609102016778609302016091020190
:1034E0006B29609302016EB1677C6EB96EB16A2977
:1034F0006EB9A59864B3682B64BB60A171A1DB01B0
:103500000C91D2A40D210C9360A171A1DB010C914F
:10351000D6A00D290C93915009F0EDCEE6CE2F7375
:10352000215008F445C090910201977890930201D0
:1035300090910201912B909302019EB1977C9EB9CC
:103540009EB19D2B9EB9A59894B39C2B94BB40A192
:1035500051A1DA019C9132A593239C9340A151A1E2
:10356000DA019C9136A1932B9C939091020197785C
:1035700090930201909102019B29909302019EB1C8
:10358000977C9EB99EB19A299EB9A59894B3982B21
:1035900094BB40A151A1DA019C9132A593239C9345
:1035A00040A151A1DA019C9136A1932B9C93B8CFF5
:1035B000A48DB58D8C9194A1892B8C93DF91CF91A3
:1035C0001F910F91FF90EF90DF90CF90BF90AF9041
:1035D0000895CF93DF93FC01A48DB58D8C9190A5B8
:1035E00089238C93808591850197A68DB78D2C9129
:1035F00031A523232C93A2E0B1E02C9127782C93C2
:103600002C912C932EB1277C2EB9749AA59824B3B3
:1036100024BBC0A1D1A1288132A523232883C0A126
:10362000D1A1288136A1232B2883C68DD78D28814F
:1036300035A1232B28832C9127782C93CC91292FEB
:103640003327A90163E0559547956A95E1F74871DD
:10365000B901D5E0660F771FDA95E1F76076462B62
:103660004C2B4C934EB1477C4EB9CEB1A901440FBF
:10367000551F440F551F4073B90175956795759592
:1036800067956870462B4C2B4EB9A59844B3220F12
:10369000331F2072242B24BBC0A1D1A1288132A5C5
:1036A00023232883C0A1D1A1288136A1232B2883DD
:1036B000C68DD78D288131A5232328832C91277887
:1036C0002C932C9120622C932EB1277C2EB9749AC6
:1036D000A59824B324BBC0A1D1A1288132A523235E
:1036E0002883C0A1D1A1288136A1232B2883C68D90
:1036F000D78D288135A1232B28832C9127782C93D3
:103700006C9199279C0173E0359527957A95E1F79F
:103710002871AC01C5E0440F551FCA95E1F740760A
:10372000242B262B2C932EB1277C2EB96EB19C0115
:10373000220F331F220F331F2073AC01559547957D
:10374000559547954870242B262B2EB9A59824B360
:10375000880F991F8072822B84BBC0A1D1A1888160
:1037600092A589238883C0A1D1A1888196A1892BA4
:103770008883828593850197C68DD78D288131A551
:10378000232328832C9127782C932C912C932EB1D2
:10379000277C2EB9759AA59824B324BBC0A1D1A1CA
:1037A000288132A523232883C0A1D1A1288136A155
:1037B000232B2883C68DD78D288135A1232B2883E1
:1037C0002C9127782C93CC91292F3327A90163E0E2
:1037D000559547956A95E1F74871B901D5E0660FAF
:1037E000771FDA95E1F76076462B4C2B4C934EB160
:1037F000477C4EB9CEB1A901440F551F440F551F48
:103800004073B90175956795759567956870462BF6
:103810004C2B4EB9A59844B3220F331F2072242B92
:1038200024BBC0A1D1A1288132A523232883C0A114
:10383000D1A1288136A1232B2883C68DD78D28813D
:1038400031A5232328832C9127782C932C91206257
:103850002C932EB1277C2EB9759AA59824B324BB3E
:10386000C0A1D1A1288132A523232883C0A1D1A141
:10387000288136A1232B2883C68DD78D288135A199
:10388000232B28832C9127782C936C9199279C01CA
:1038900073E0359527957A95E1F72871AC01C5E07D
:1038A000440F551FCA95E1F74076242B262B2C9305
:1038B0002EB1277C2EB96EB19C01220F331F220F2F
:1038C000331F2073AC015595479555954795487022
:1038D000242B262B2EB9A59824B3880F991F80720C
:1038E000822B84BBA0A1B1A18C9192A589238C933A
:1038F000A0A1B1A18C9196A1892B8C93A48DB58D9B
:103900008C9194A1892B8C93DF91CF9108958F9204
:103910009F92BF92CF92DF92EF92FF920F931F93ED
:10392000CF93DF93EC017A01A901EC8DFD8D8081AD
:1039300098A5892380838B8D811125C58E8982303E
:1039400009F4FEC4833009F410C54701DB0181305E
:1039500061F4AFEEB0E0CD01801B910BAE19BF0951
:103960004B018901AD017B01BC012E8D3F8DF90119
:10397000808199A589238083809102018778809333
:10398000020180910201809302018EB1877C8EB981
:103990008EB18EB9A59884B384BB28A139A1F90151
:1039A00080819AA58923808328A139A1F90180818A
:1039B0009EA1892B808380910201877880930201E8
:1039C000809102018860809302018EB1877C8EB95C
:1039D0008EB18EB9A598A59A28A139A1F901808147
:1039E0009AA58923808328A139A1F90180819EA10C
:1039F000892B80832E8D3F8DF90180819DA1892B9C
:103A0000808380910201877880930201B090020147
:103A1000872F99279C01F3E035952795FA95E1F7D3
:103A200028716C0135E0CC0CDD1C3A95E1F73C2D9A
:103A30003076232B2B29209302012EB1277C2EB91F
:103A4000BEB09C01220F331F220F331F20736C0165
:103A5000D594C794D594C7943C2D3870232B2B292B
:103A60002EB9A59824B3880F991F8072822B84BB2E
:103A700028A139A1F90180819AA58923808328A1F1
:103A800039A1F90180819EA1892B80838091020157
:103A9000877880930201D0900201CB01E3E09595F5
:103AA0008795EA95E1F788719B01F5E0220F331FB6
:103AB000FA95E1F72076822B8D29809302018EB151
:103AC000877C8EB9DEB0CB01880F991F880F991FB4
:103AD00080739B0135952795359527952870822B06
:103AE0008D298EB9A59824B3660F771F6072622B5B
:103AF00064BB28A139A1F90180819AA5892380831B
:103B000028A139A1F90180819EA1892B80832E8D66
:103B10003F8DF901808199A58923808380910201DD
:103B200087788093020180910201809302018EB117
:103B3000877C8EB98EB18EB9A59884B384BB28A139
:103B400039A1F90180819AA58923808328A139A10F
:103B5000F90180819EA1892B808380910201877861
:103B600080930201809102018862809302018EB1EC
:103B7000877C8EB98EB18EB9A598A59A28A139A156
:103B8000F90180819AA58923808328A139A1F901AF
:103B900080819EA1892B80832E8D3F8DF9018081AC
:103BA0009DA1892B808380910201877880930201F7
:103BB000D0900201852F99279C0163E035952795C8
:103BC0006A95E1F72871BC01E5E0660F771FEA9579
:103BD000E1F76076262B2D29209302012EB1277C58
:103BE0002EB9DEB09C01220F331F220F331F20732A
:103BF000BC0175956795759567956870262B2D297D
:103C00002EB9A59824B3880F991F8072822B84BB8C
:103C100028A139A1F90180819AA58923808328A14F
:103C200039A1F90180819EA1892B808380910201B5
:103C300087788093020160910201CA0173E0959533
:103C400087957A95E1F788719A01E5E0220F331F95
:103C5000EA95E1F72076822B862B809302018EB1C4
:103C6000877C8EB96EB1CA01880F991F880F991F82
:103C700080739A0135952795359527952870822B65
:103C8000862B8EB9A59884B39A01220F331F207218
:103C9000282B24BB28A139A1F90180819AA5892369
:103CA000808328A139A1F90180819EA1892B80837D
:103CB0002E8D3F8DF901808199A589238083809184
:103CC00002018778809302018091020180930201B2
:103CD0008EB1877C8EB98EB18EB9A59884B384BB22
:103CE00028A139A1F90180819AA58923808328A17F
:103CF00039A1F90180819EA1892B808380910201E5
:103D00008778809302018091020188648093020188
:103D10008EB1877C8EB98EB18EB9A598A59A28A14F
:103D200039A1F90180819AA58923808328A139A12D
:103D3000F90180819EA1892B80832E8D3F8DF90111
:103D400080819DA1892B8083809102018778809357
:103D50000201609102018F2D99279C0173E0359536
:103D600027957A95E1F72871AC01E5E0440F551FDE
:103D7000EA95E1F74076242B262B209302012EB101
:103D8000277C2EB96EB19C01220F331F220F331FE7
:103D90002073AC0155954795559547954870242B50
:103DA000262B2EB9A59824B3880F991F8072822BD9
:103DB00084BB28A139A1F90180819AA58923808338
:103DC00028A139A1F90180819EA1892B808380914E
:103DD000020187788093020140910201C70153E0FC
:103DE000959587955A95E1F78871970165E0220FBF
:103DF000331F6A95E1F72076822B842B8093020192
:103E00008EB1877C8EB94EB1C701880F991F880F7C
:103E1000991F8073970135952795359527952870BB
:103E2000822B842B8EB9A59884B39701220F331F60
:103E30002072282B24BB28A139A1F90180819AA5E1
:103E40008923808328A139A1F90180819EA1892B32
:103E500080832E8D3F8DF901808199A589238083F0
:103E60008091020187788093020180910201809302
:103E700002018EB1877C8EB98EB18EB9A59884B3BC
:103E800084BB28A139A1F90180819AA58923808367
:103E900028A139A1F90180819EA1892B808380917D
:103EA00002018778809302018091020188668093E5
:103EB00002018EB1877C8EB98EB18EB9A598A59A74
:103EC00028A139A1F90180819AA58923808328A19D
:103ED00039A1F90180819EA1892B80832E8D3F8D90
:103EE000F90180819DA1892B8083809102018778CF
:103EF0008093020160910201812F99279C0143E088
:103F0000359527954A95E1F72871AC0175E0440F86
:103F1000551F7A95E1F74076242B262B209302013A
:103F20002EB1277C2EB96EB19C01220F331F220FB8
:103F3000331F2073AC0155954795559547954870AB
:103F4000242B262B2EB9A59824B3880F991F807295
:103F5000822B84BB28A139A1F90180819AA58923EC
:103F6000808328A139A1F90180819EA1892B8083BA
:103F70008091020187788093020140910201C8017B
:103F800053E0959587955A95E1F78871980165E01A
:103F9000220F331F6A95E1F72076822B842B8093C2
:103FA00002018EB1877C8EB94EB1C801880F991F6E
:103FB000880F991F8073980135952795359527951A
:103FC0002870822B842B8EB9A59884B39801220F78
:103FD000331F2072282B24BB28A139A1F90180812D
:103FE0009AA58923808328A139A1F90180819EA106
:103FF000892B80832E8D3F8DF901808199A589239E
:104000008083809102018778809302018091020170
:10401000809302018EB1877C8EB98EB18EB9A5983E
:1040200084B384BB28A139A1F90180819AA5892391
:10403000808328A139A1F90180819EA1892B8083E9
:104040008091020187788093020180910201809320
:1040500002018EB1877C8EB9739AA59884B384BB14
:1040600028A139A1F90180819AA58923808328A1FB
:1040700039A1F90180819EA1892B80832E8D3F8DEE
:10408000F90180819DA1892B80838091020187782D
:1040900080930201609102018B2F99279C0103E01C
:1040A000359527950A95E1F72871AC0135E0440F65
:1040B000551F3A95E1F74076242B262B20930201D9
:1040C0002EB1277C2EB96EB19C01220F331F220F17
:1040D000331F2073AC01559547955595479548700A
:1040E000242B262B2EB9A59824B3880F991F8072F4
:1040F000822B84BB28A139A1F90180819AA589234B
:10410000808328A139A1F90180819EA1892B808318
:104110008091020187788093020140910201CD01D4
:10412000F3E095958795FA95E1F788719D0115E083
:10413000220F331F1A95E1F72076822B842B809370
:1041400002018EB1877C8EB94EB1CD01880F991FC7
:10415000880F991F80739D01359527953595279573
:104160002870822B842B8EB9A59884B3AA0FBB1F0D
:10417000A072A82BA4BBA8A1B9A18C919AA5892350
:104180008C93A8A1B9A18C919EA1892B8C93AE8D03
:10419000BF8D8C9199A589238C938091020187789A
:1041A0008093020180910201809302018EB1877C8D
:1041B0008EB98EB18EB9A59884B384BBA8A1B9A1DC
:1041C0008C919AA589238C93A8A1B9A18C919EA1C9
:1041D000892B8C93809102018778809302018091D2
:1041E00002018062809302018EB1877C8EB9739A3E
:1041F000A59884B384BBA8A1B9A18C919AA5892361
:104200008C93A8A1B9A18C919EA1892B8C93AE8D82
:10421000BF8D8C919DA1892B8C9380910201877811
:104220008093020160910201892D99279C0143E04E
:10423000359527954A95E1F72871AC0175E0440F53
:10424000551F7A95E1F74076242B262B2093020107
:104250002EB1277C2EB96EB19C01220F331F220F85
:10426000331F2073AC015595479555954795487078
:10427000242B262B2EB9A59824B3880F991F807262
:10428000822B84BBA8A1B9A18C919AA589238C9378
:10429000A8A1B9A18C919EA1892B8C938091020138
:1042A00087788093020140910201C401B3E09595A3
:1042B0008795BA95E1F78871940115E0220F331FB5
:1042C0001A95E1F72076822B842B809302018EB120
:1042D000877C8EB94EB1C401880F991F880F991F32
:1042E0008073940135952795359527952870822BF5
:1042F000842B8EB9A59884B3F401EE0FFF1FE072F2
:10430000E82BE4BBE8A1F9A180819AA589238083E9
:10431000E8A1F9A180819EA1892B8083EC8DFD8D80
:1043200080819CA1892B8083DF91CF911F910F9178
:10433000FF90EF90DF90CF90BF909F908F90089567
:104340008FEE90E09C01241B350BAC01461B570BF4
:104350008FE391E0BC01601B710B8C010E191F09EA
:104360004801DA017B01B90100CBEFE3F1E0CF01B5
:10437000821B930B4F01861A970AD701A80184016B
:10438000B7017C01F2CA813009F040C3EE8DFF8D88
:10439000808199A589238083809102018778809309
:1043A0000201809102018064809302018EB1877CBA
:1043B0008EB98EB18EB9A59884B384BBE8A1F9A15A
:1043C00080819AA589238083E8A1F9A180819EA19B
:1043D000892B8083EE8DFF8D80819DA1892B808329
:1043E00080910201877880930201A0910201872FBA
:1043F00099279C01F3E035952795FA95E1F7287107
:10440000FC01B5E0EE0FFF1FBA95E1F7E0762E2B29
:104410002A2B209302012EB1277C2EB9AEB19C012C
:10442000220F331F220F331F2073FC01F595E795F0
:10443000F595E795E8702E2B2A2B2EB9A59824B375
:10444000880F991F8072822B84BBE8A1F9A180811B
:104450009AA589238083E8A1F9A180819EA1892B57
:104460008083EE8DFF8D808199A589238083809143
:104470000201877880930201809102018066809317
:1044800002018EB1877C8EB98EB18EB9A59884B3A6
:1044900084BBE8A1F9A180819AA589238083E8A142
:1044A000F9A180819EA1892B8083EE8DFF8D808173
:1044B0009DA1892B808380910201877880930201DE
:1044C000E0910201CB01F3E095958795FA95E1F72C
:1044D00088719B01A5E0220F331FAA95E1F7207692
:1044E000822B8E2B809302018EB1877C8EB9EEB128
:1044F000CB01880F991F880F991F80739B013595F9
:104500002795359527952870822B8E2B8EB9A598E7
:1045100024B3660F771F6072622B64BBE8A1F9A118
:1045200080819AA589238083E8A1F9A180819EA139
:10453000892B8083EE8DFF8D808199A589238083CF
:10454000809102018778809302018091020180644A
:10455000809302018EB1877C8EB9749AA59884B33A
:1045600084BBE8A1F9A180819AA589238083E8A171
:10457000F9A180819EA1892B8083EE8DFF8D8081A2
:104580009DA1892B8083809102018778809302010D
:10459000E09102018F2D99279C0173E035952795B5
:1045A0007A95E1F72871BC01F5E0660F771FFA955F
:1045B000E1F76076262B2E2B209302012EB1277C6B
:1045C0002EB9EEB19C01220F331F220F331F20732F
:1045D000BC0175956795759567956870262B2E2B90
:1045E0002EB9A59824B3880F991F8072822B84BBA3
:1045F000E8A1F9A180819AA589238083E8A1F9A186
:1046000080819EA1892B8083EE8DFF8D808199A56D
:1046100089238083809102018778809302018091B1
:1046200002018066809302018EB1877C8EB9749AF4
:10463000A59884B384BBE8A1F9A180819AA58923B8
:104640008083E8A1F9A180819EA1892B8083EE8DD2
:10465000FF8D80819DA1892B8083809102018778C5
:104660008093020160910201C70173E095958795DF
:104670007A95E1F788719701E5E0220F331FEA95FB
:10468000E1F72076822B862B809302018EB1877C06
:104690008EB96EB1C701880F991F880F991F80735B
:1046A000970135952795359527952870822B862B70
:1046B0008EB9A59884B39701220F331F2072282B3F
:1046C00024BBE8A1F9A180819AA589238083E8A170
:1046D000F9A180819EA1892B8083EE8DFF8D808141
:1046E00099A58923808380910201877880930201B4
:1046F00080910201809302018EB1877C8EB9749AF9
:10470000A59884B384BBE8A1F9A180819AA58923E7
:104710008083E8A1F9A180819EA1892B8083EE8D01
:10472000FF8D80819DA1892B8083809102018778F4
:1047300080930201E0910201852F99279C0163E09B
:10474000359527956A95E1F72871BC01F5E0660F6C
:10475000771FFA95E1F76076262B2E2B2093020126
:104760002EB1277C2EB9EEB19C01220F331F220FF0
:10477000331F2073BC0175956795759567956870B3
:10478000262B2E2B2EB9A59824B3880F991F807243
:10479000822B84BBE8A1F9A180819AA5892380831B
:1047A000E8A1F9A180819EA1892B8083EE8DFF8DE8
:1047B000808199A5892380838091020187788093E5
:1047C0000201809102018062809302018EB1877C98
:1047D0008EB9749AA59884B384BBE8A1F9A18081AD
:1047E0009AA589238083E8A1F9A180819EA1892BC4
:1047F0008083EE8DFF8D80819DA1892B80838091A8
:10480000020187788093020160910201CA0173E07E
:10481000959587957A95E1F788719A01E5E0220FE1
:10482000331FEA95E1F72076822B862B80930201D5
:104830008EB1877C8EB96EB1CA01880F991F880F1F
:10484000991F80739A01359527953595279528707E
:10485000822B862B8EB9A59884B39A01220F331F21
:104860002072282B24BBE8A1F9A180819AA5892375
:104870008083E8A1F9A180819EA1892B8083EE8DA0
:10488000FF8D808199A5892380838091020187789B
:104890008093020180910201809302018EB1877C96
:1048A0008EB9759AA59884B384BBE8A1F9A18081DB
:1048B0009AA589238083E8A1F9A180819EA1892BF3
:1048C0008083EE8DFF8D80819DA1892B80838091D7
:1048D000020187788093020160910201812F99275C
:1048E0009C0143E0359527954A95E1F72871AC0185
:1048F00075E0440F551F7A95E1F74076242B262B5F
:10490000209302012EB1277C2EB96EB19C01220F9B
:10491000331F220F331F2073AC01559547955595D2
:1049200047954870242B262B2EB9A59824B3880FC1
:10493000991F8072822B84BBE8A1F9A180819AA57E
:1049400089238083E8A1F9A180819EA1892B80839E
:10495000EE8DFF8D808199A589238083809102014E
:104960008778809302018091020180628093020126
:104970008EB1877C8EB9759AA59884B384BBE8A163
:10498000F9A180819AA589238083E8A1F9A180817A
:104990009EA1892B8083EE8DFF8D80819DA1892B27
:1049A0008083809102018778809302014091020107
:1049B000C801B3E095958795BA95E1F7887198019C
:1049C00095E0220F331F9A95E1F72076822B842BF6
:1049D000809302018EB1877C8EB94EB1C801880FD9
:1049E000991F880F991F80739801359527953595E4
:1049F00027952870822B842B8EB9A59884B39801B3
:104A0000220F331F2072282B24BB7CCC8250823093
:104A100008F084CC072E000C880B990BCB0177276C
:104A200066279A01550F440B550B262B372B482B25
:104A3000592B6AE2CE010E947416C701FF0CAA0B23
:104A4000BB0BDC0199278827012E000C220B330BAE
:104A5000A9019801282B392B4A2B5B2B6BE2CE0145
:104A60000E9474165BCCCF92DF92EF92FF920F936D
:104A70001F93CF93DF93EC010E94480EEC8DFD8DC8
:104A8000808198A5892380838B8D8111AEC0EE89AA
:104A9000E15080E390E1E33038F4F0E0EE0FFF1FE7
:104AA000ED58FA4F80819181EE8DFF8D208139A5DF
:104AB0002323208320910201277820930201209153
:104AC0000201209302012EB1277C2EB92EB12EB9FE
:104AD000A59824B324BBE8A1F9A120813AA52323FA
:104AE0002083E8A1F9A120813EA1232B20832091DE
:104AF0000201277820930201209102012066209371
:104B000002012EB1277C2EB92EB12EB9A59824B35F
:104B100024BBE8A1F9A120813AA523232083E8A1A1
:104B2000F9A120813EA1232B2083EE8DFF8D2081D2
:104B30003DA1232B2083209102012778209302019D
:104B400020910201209302012EB1277C2EB92EB1B3
:104B50002EB9A598A59AE8A1F9A120813AA5232309
:104B60002083E8A1F9A120813EA1232B208320915D
:104B70000201277820930201209102012093020173
:104B80002EB1277C2EB96EB19C01220F331F220F4C
:104B9000331F2073AC01559547955595479548703F
:104BA000242B262B2EB9A59824B3880F991F807229
:104BB000822B84BBE8A1F9A180819AA589238083F7
:104BC000E8A1F9A180819EA1892B80830A851B859C
:104BD00001501109288539852150310950E040E004
:104BE00070E060E0CE010E94871C8B8D813009F05F
:104BF00060C0EE89E15080E0E33020F4F0E0E0595D
:104C0000FA4F8081EE8DFF8D908129A592239083AC
:104C10009091020197789093020190910201906423
:104C2000909302019EB1977C9EB9749AA598A59A1B
:104C3000E8A1F9A190812AA592239083E8A1F9A186
:104C400090812EA1922B9083EE8DFF8D90812DA1CE
:104C5000922B90839091020197789093020140915A
:104C6000020190E09C0153E0359527955A95E1F7B4
:104C70002871242B209302012EB1277C2EB92EB14E
:104C800095958795959587958870822B8EB9A5986F
:104C900084B384BBE8A1F9A180819AA5892380838C
:104CA000E8A1F9A180819EA1892B8083CE010E9479
:104CB000E91A8B8D823009F073C08E89813009F436
:104CC000FAC008F4F4C0823009F4E9C0833009F472
:104CD000EAC0EE8DFF8D808199A589238083809124
:104CE00002018778809302018091020180648093A1
:104CF00002018EB1877C8EB98EB188618EB9A5987C
:104D0000A59AE8A1F9A180819AA589238083E8A1C9
:104D1000F9A180819EA1892B8083EE8DFF8D8081FA
:104D20009DA1892B80838091020187788093020165
:104D300020910201C601E3E096958795EA95E1F797
:104D40008871822B809302018EB1877C8EB98EB1DF
:104D5000D694C794D694C7949C2D9870C92E80621F
:104D6000C82ACEB8A59884B384BBE8A1F9A18081F4
:104D70009AA589238083E8A1F9A180819EA1892B2E
:104D800080830A851B8501501109288539852150AA
:104D9000310950E040E070E060E0CE010E94871CE5
:104DA0008B8D833009F072C08E89813009F492C0F6
:104DB00008F48CC0823009F482C0833009F482C0C8
:104DC000EE8DFF8D808199A58923808380910201DA
:104DD00087788093020180910201806480930201B0
:104DE0008EB1877C8EB98EB188618EB9A598A59A4F
:104DF000E8A1F9A180819AA589238083E8A1F9A17E
:104E000080819EA1892B8083EE8DFF8D80819DA165
:104E1000892B808380910201877880930201209101
:104E20000201C70133E0969587953A95E1F78871BD
:104E3000822B809302018EB1877C8EB98EB1F6945D
:104E4000E794F694E7949E2D9870E92EE82AEEB840
:104E5000A59884B384BBE8A1F9A180819AA5892390
:104E60008083E8A1F9A180819EA1892B80830A8596
:104E70001B8501501109288539852150310950E0E1
:104E800040E070E060E0CE010E94871CDF91CF918E
:104E90001F910F91FF90EF90DF90CF90089508E45D
:104EA000C02ED12C16CF18E2C12ED12C12CFB8E8CB
:104EB000CB2ED12C0ECFA8EECA2ED12C0ACFF12C9E
:104EC000E12C7ECF70E6E72EF12C7ACF60ECE62E57
:104ED000F12C76CF50EAE52EF12C72CFEF92FF92B3
:104EE0000F931F93CF93DF93EC01790177FD7FC27E
:104EF00057FD7DC288859985681779070CF077C2C0
:104F00008A859B85481759070CF071C2EC8DFD8D81
:104F1000808198A5892380838B8D811183C28E899E
:104F2000823009F46BC2833009F475C2813031F4E8
:104F30008FEE90E0841B950BAB01BC01EE8DFF8DD5
:104F4000808199A58923808380910201877880934D
:104F5000020180910201809302018EB1877C8EB99B
:104F60008EB18EB9A59884B384BBE8A1F9A18081E4
:104F70009AA589238083E8A1F9A180819EA1892B2C
:104F800080838091020187788093020180910201E1
:104F9000809302018EB1877C8EB9739AA59884B3F1
:104FA00084BBE8A1F9A180819AA589238083E8A127
:104FB000F9A180819EA1892B8083EE8DFF8D808158
:104FC0009DA1892B808380910201877880930201C3
:104FD000A0910201872F99279C01E3E03595279541
:104FE000EA95E1F72871FC01B5E0EE0FFF1FBA95D5
:104FF000E1F7E0762E2B2A2B209302012EB1277C9D
:105000002EB9AEB19C01220F331F220F331F207324
:10501000FC01F595E795F595E795E8702E2B2A2B81
:105020002EB9A59824B3880F991F8072822B84BB58
:10503000E8A1F9A180819AA589238083E8A1F9A13B
:1050400080819EA1892B8083809102018778809343
:105050000201E0910201CB01F3E095958795FA9565
:10506000E1F788719B01A5E0220F331FAA95E1F7B4
:105070002076822B8E2B809302018EB1877C8EB995
:10508000EEB1CB01880F991F880F991F80739B0188
:1050900035952795359527952870822B8E2B8EB9BF
:1050A000A59884B3660F771F6072682B64BBE8A174
:1050B000F9A180819AA589238083E8A1F9A1808143
:1050C0009EA1892B8083EE8DFF8D808199A58923F8
:1050D0008083809102018778809302018091020190
:1050E000809302018EB1877C8EB98EB18EB9A5985E
:1050F00084B384BBE8A1F9A180819AA58923808328
:10510000E8A1F9A180819EA1892B80838091020171
:10511000877880930201809102018062809302016E
:105120008EB1877C8EB9739AA59884B384BBE8A1AD
:10513000F9A180819AA589238083E8A1F9A18081C2
:105140009EA1892B8083EE8DFF8D80819DA1892B6F
:10515000808380910201877880930201E0910201AF
:10516000852F99279C0163E0359527956A95E1F78E
:105170002871BC01F5E0660F771FFA95E1F76076BC
:10518000262B2E2B209302012EB1277C2EB9EEB1B7
:105190009C01220F331F220F331F2073BC01759512
:1051A0006795759567956870262B2E2B2EB9A59857
:1051B00024B3880F991F8072822B84BBE8A1F9A1C8
:1051C00080819AA589238083E8A1F9A180819EA18D
:1051D000892B8083809102018778809302016091FE
:1051E0000201CA0103E0959587950A95E1F7887158
:1051F0009A0195E0220F331F9A95E1F72076822BD2
:10520000862B809302018EB1877C8EB96EB1CA0164
:10521000880F991F880F991F80739A0135952795DC
:10522000359527952870822B862B8EB9A59884B347
:10523000440F551F4072482B44BBE8A1F9A180815F
:105240009AA589238083E8A1F9A180819EA1892B59
:105250008083EE8DFF8D808199A589238083809145
:1052600002018778809302018091020180930201FC
:105270008EB1877C8EB98EB18EB9A59884B384BB6C
:10528000E8A1F9A180819AA589238083E8A1F9A1E9
:1052900080819EA1892B80838091020187788093F1
:1052A0000201809102018064809302018EB1877CAB
:1052B0008EB9739AA59884B384BBE8A1F9A18081C3
:1052C0009AA589238083E8A1F9A180819EA1892BD9
:1052D0008083EE8DFF8D80819DA1892B80838091BD
:1052E0000201877880930201609102018F2D992736
:1052F0009C01A3E035952795AA95E1F72871AC01AB
:10530000B5E0440F551FBA95E1F74076242B262BC4
:10531000209302012EB1277C2EB96EB19C01220F81
:10532000331F220F331F2073AC01559547955595B8
:1053300047954870242B262B2EB9A59824B3880FA7
:10534000991F8072822B84BBE8A1F9A180819AA564
:1053500089238083E8A1F9A180819EA1892B808384
:105360008091020187788093020140910201C70178
:1053700053E0959587955A95E1F78871970165E017
:10538000220F331F6A95E1F72076822B842B8093BE
:1053900002018EB1877C8EB94EB1C701880F991F6B
:1053A000880F991F80739701359527953595279517
:1053B0002870822B842B8EB9A59884B3EE0CFF1C29
:1053C0003E2D3072E32EE82AE4BAE8A1F9A18081EB
:1053D0009AA589238083E8A1F9A180819EA1892BC8
:1053E0008083EC8DFD8D80819CA1892B8083DF9152
:1053F000CF911F910F91FF90EF9008958FEE90E065
:105400009C01261B370BB9018FE391E09C01241B03
:10541000350BA90193CD8FE391E0861B970BBA0161
:10542000AC018CCD813009F0A1C2EE89E15080E061
:10543000E33020F4F0E0E059FA4F8081EE8DFF8DEB
:10544000908129A59223908390910201977890935F
:105450000201909102019064909302019EB1977CA9
:105460009EB9749AA598A59AE8A1F9A190812AA558
:1054700092239083E8A1F9A190812EA1922B908391
:10548000EE8DFF8D90812DA1922B90839091020142
:10549000977890930201E091020190E09C01F3E083
:1054A00035952795FA95E1F728712E2B2093020167
:1054B0002EB1277C2EB92EB1959587959595879518
:1054C0008870822B8EB9A59884B384BBE8A1F9A11A
:1054D00080819AA589238083E8A1F9A180819EA17A
:1054E000892B8083EE8DFF8D808199A58923808310
:1054F000809102018778809302018091020180648B
:10550000809302018EB1877C8EB98EB18EB9A59839
:1055100084B384BBE8A1F9A180819AA58923808303
:10552000E8A1F9A180819EA1892B8083EE8DFF8D5A
:1055300080819DA1892B808380910201877880934F
:105540000201A0910201872F99279C0113E0359554
:1055500027951A95E1F72871FC0105E0EE0FFF1F72
:105560000A95E1F7E0762E2B2A2B209302012EB12B
:10557000277C2EB9AEB19C01220F331F220F331F9F
:105580002073FC01F595E795F595E795E8702E2BCE
:105590002A2B2EB9A59824B3880F991F8072822BCD
:1055A00084BBE8A1F9A180819AA589238083E8A121
:1055B000F9A180819EA1892B8083EE8DFF8D808152
:1055C00099A58923808380910201877880930201C5
:1055D000809102018066809302018EB1877C8EB932
:1055E0008EB18EB9A59884B384BBE8A1F9A180815E
:1055F0009AA589238083E8A1F9A180819EA1892BA6
:105600008083EE8DFF8D80819DA1892B8083809189
:105610000201877880930201E0910201CB0103E04F
:10562000959587950A95E1F788719B0195E0220F82
:10563000331F9A95E1F72076822B8E2B80930201FF
:105640008EB1877C8EB9EEB1CB01880F991F880F80
:10565000991F80739B01359527953595279528705F
:10566000822B8E2B8EB9A59884B3660F771F60723C
:10567000682B64BBE8A1F9A180819AA58923808366
:10568000E8A1F9A180819EA1892B8083EE8DFF8DF9
:10569000808199A5892380838091020187788093F6
:1056A0000201809102018064809302018EB1877CA7
:1056B0008EB9749AA59884B384BBE8A1F9A18081BE
:1056C0009AA589238083E8A1F9A180819EA1892BD5
:1056D0008083EE8DFF8D80819DA1892B80838091B9
:1056E0000201877880930201E0910201852F9927BA
:1056F0009C0113E0359527951A95E1F72871BC01B7
:1057000005E0660F771F0A95E1F76076262B2E2BB2
:10571000209302012EB1277C2EB9EEB19C01220FFD
:10572000331F220F331F2073BC0175956795759544
:1057300067956870262B2E2B2EB9A59824B3880F59
:10574000991F8072822B84BBE8A1F9A180819AA560
:1057500089238083E8A1F9A180819EA1892B808380
:10576000EE8DFF8D808199A5892380838091020130
:105770008778809302018091020180668093020104
:105780008EB1877C8EB9749AA59884B384BBE8A146
:10579000F9A180819AA589238083E8A1F9A180815C
:1057A0009EA1892B8083EE8DFF8D80819DA1892B09
:1057B00080838091020187788093020160910201C9
:1057C000CA01B3E095958795BA95E1F788719A017A
:1057D00015E0220F331F1A95E1F72076822B862BD6
:1057E000809302018EB1877C8EB96EB1CA01880F99
:1057F000991F880F991F80739A01359527953595C4
:1058000027952870822B862B8EB9A59884B3440FD8
:10581000551F4072482B44BBE8A1F9A180819AA58D
:1058200089238083E8A1F9A180819EA1892B8083AF
:10583000EE8DFF8D808199A589238083809102015F
:105840008778809302018091020180648093020135
:105850008EB1877C8EB9739AA59884B384BBE8A176
:10586000F9A180819AA589238083E8A1F9A180818B
:105870009EA1892B8083EE8DFF8D80819DA1892B38
:1058800080838091020187788093020160910201F8
:105890008F2D99279C0143E0359527954A95E1F78F
:1058A0002871AC0175E0440F551F7A95E1F74076F9
:1058B000242B262B209302012EB1277C2EB96EB10A
:1058C0009C01220F331F220F331F2073AC0155950B
:1058D0004795559547954870242B262B2EB9A598AA
:1058E00024B3880F991F8072822B84BBE8A1F9A191
:1058F00080819AA589238083E8A1F9A180819EA156
:10590000892B8083809102018778809302014091E6
:105910000201C701B3E095958795BA95E1F78871C3
:10592000970115E0220F331F1A95E1F72076822B9D
:10593000842B809302018EB1877C8EB94EB1C70152
:10594000880F991F880F991F8073970135952795A8
:10595000359527952870822B842B8EB9A59884B312
:10596000EE0CFF1C9E2D9072E92E2DCD82508230C0
:1059700008F037CD0A851B85015011092885398526
:1059800021503109CE010E94871CEC8DFD8D808154
:1059900098A589238083EE8DFF8D808199A5892329
:1059A00080838091020187788093020180910201B7
:1059B000809302018EB1877C8EB98EB188638EB9D7
:1059C000A59884B384BBE8A1F9A180819AA5892315
:1059D0008083E8A1F9A180819EA1892B8083EE8D2F
:1059E000FF8D80819DA1892B808380910201877822
:1059F00080930201909102018F2D86958695869560
:105A00008871892B9F2D9295990F9076892B809381
:105A100002018EB1877C8EB99EB18F2D86958695B9
:105A20008870892B9F2D990F990F9073892B8EB9B0
:105A3000A59894B38F2D880F8072892B84BBE8A121
:105A4000F9A180819AA589238083E8A1F9A18081A9
:105A50009EA1892B80838091020187788093020127
:105A600020910201C70133E0969587953A95E1F7B9
:105A700088719E2D9295990F9076892B822B809319
:105A800002018EB1877C8EB99EB18E2D880F880F52
:105A90008073970136952795369527952870822B28
:105AA000892B8EB9A59884B3EE0C2E2D2072E22E90
:105AB0008ACCEF92FF920F931F93CF93DF93EC0169
:105AC0007B018B8D81116AC1EE89E150E33008F0D2
:105AD00060C1F0E0DF01A359BA4F8C9190E0EE0F66
